{
  "contractName": "HealthCare",
  "abi": [
    {
      "inputs": [],
      "stateMutability": "nonpayable",
      "type": "constructor"
    },
    {
      "inputs": [
        {
          "internalType": "string",
          "name": "_name",
          "type": "string"
        },
        {
          "internalType": "uint8",
          "name": "_age",
          "type": "uint8"
        }
      ],
      "name": "signupPatient",
      "outputs": [],
      "stateMutability": "nonpayable",
      "type": "function"
    },
    {
      "inputs": [
        {
          "internalType": "string",
          "name": "_name",
          "type": "string"
        }
      ],
      "name": "signupDoctor",
      "outputs": [],
      "stateMutability": "nonpayable",
      "type": "function"
    },
    {
      "inputs": [
        {
          "internalType": "address",
          "name": "doctor_id",
          "type": "address"
        }
      ],
      "name": "grantAccessToDoctor",
      "outputs": [],
      "stateMutability": "nonpayable",
      "type": "function"
    },
    {
      "inputs": [],
      "name": "getPatientProfile",
      "outputs": [
        {
          "internalType": "string",
          "name": "",
          "type": "string"
        },
        {
          "internalType": "uint8",
          "name": "",
          "type": "uint8"
        },
        {
          "internalType": "address[]",
          "name": "",
          "type": "address[]"
        }
      ],
      "stateMutability": "view",
      "type": "function",
      "constant": true
    },
    {
      "inputs": [],
      "name": "getDoctorProfile",
      "outputs": [
        {
          "internalType": "string",
          "name": "",
          "type": "string"
        },
        {
          "internalType": "address[]",
          "name": "",
          "type": "address[]"
        }
      ],
      "stateMutability": "view",
      "type": "function",
      "constant": true
    },
    {
      "inputs": [
        {
          "internalType": "address",
          "name": "pat",
          "type": "address"
        }
      ],
      "name": "getPatientInfoForDoctor",
      "outputs": [
        {
          "internalType": "string",
          "name": "",
          "type": "string"
        },
        {
          "internalType": "uint8",
          "name": "",
          "type": "uint8"
        },
        {
          "internalType": "address",
          "name": "",
          "type": "address"
        }
      ],
      "stateMutability": "view",
      "type": "function",
      "constant": true
    }
  ],
  "bytecode": "0x608060405234801561001057600080fd5b50336000806101000a81548173ffffffffffffffffffffffffffffffffffffffff021916908373ffffffffffffffffffffffffffffffffffffffff1602179055506124f7806100606000396000f3fe608060405234801561001057600080fd5b50600436106100625760003560e01c80631644f440146100675780631c8e251c146100875780636459d52f146100a35780637120203a146100bf57806393487713146100db578063fe59cc1a146100fa575b600080fd5b61006f61012c565b60405161007e939291906120d2565b60405180910390f35b6100a1600480360381019061009c9190612157565b61054f565b005b6100bd60048036038101906100b891906122b9565b610be0565b005b6100d960048036038101906100d4919061232e565b610f75565b005b6100e3611371565b6040516100f192919061238a565b60405180910390f35b610114600480360381019061010f9190612157565b61174f565b604051610123939291906123d0565b60405180910390f35b606060006060336000600260008373ffffffffffffffffffffffffffffffffffffffff1673ffffffffffffffffffffffffffffffffffffffff16815260200190815260200160002060405180608001604052908160008201805461018f9061243d565b80601f01602080910402602001604051908101604052809291908181526020018280546101bb9061243d565b80156102085780601f106101dd57610100808354040283529160200191610208565b820191906000526020600020905b8154815290600101906020018083116101eb57829003601f168201915b505050505081526020016001820160009054906101000a900460ff1660ff1660ff1681526020016001820160019054906101000a900473ffffffffffffffffffffffffffffffffffffffff1673ffffffffffffffffffffffffffffffffffffffff1673ffffffffffffffffffffffffffffffffffffffff1681526020016002820180548060200260200160405190810160405280929190818152602001828054801561030957602002820191906000526020600020905b8160009054906101000a900473ffffffffffffffffffffffffffffffffffffffff1673ffffffffffffffffffffffffffffffffffffffff16815260200190600101908083116102bf575b5050505050815250509050600073ffffffffffffffffffffffffffffffffffffffff16816040015173ffffffffffffffffffffffffffffffffffffffff161161035157600080fd5b6000600260003373ffffffffffffffffffffffffffffffffffffffff1673ffffffffffffffffffffffffffffffffffffffff1681526020019081526020016000206040518060800160405290816000820180546103ad9061243d565b80601f01602080910402602001604051908101604052809291908181526020018280546103d99061243d565b80156104265780601f106103fb57610100808354040283529160200191610426565b820191906000526020600020905b81548152906001019060200180831161040957829003601f168201915b505050505081526020016001820160009054906101000a900460ff1660ff1660ff1681526020016001820160019054906101000a900473ffffffffffffffffffffffffffffffffffffffff1673ffffffffffffffffffffffffffffffffffffffff1673ffffffffffffffffffffffffffffffffffffffff1681526020016002820180548060200260200160405190810160405280929190818152602001828054801561052757602002820191906000526020600020905b8160009054906101000a900473ffffffffffffffffffffffffffffffffffffffff1673ffffffffffffffffffffffffffffffffffffffff16815260200190600101908083116104dd575b5050505050815250509050806000015181602001518260600151955095509550505050909192565b336000600260008373ffffffffffffffffffffffffffffffffffffffff1673ffffffffffffffffffffffffffffffffffffffff1681526020019081526020016000206040518060800160405290816000820180546105ac9061243d565b80601f01602080910402602001604051908101604052809291908181526020018280546105d89061243d565b80156106255780601f106105fa57610100808354040283529160200191610625565b820191906000526020600020905b81548152906001019060200180831161060857829003601f168201915b505050505081526020016001820160009054906101000a900460ff1660ff1660ff1681526020016001820160019054906101000a900473ffffffffffffffffffffffffffffffffffffffff1673ffffffffffffffffffffffffffffffffffffffff1673ffffffffffffffffffffffffffffffffffffffff1681526020016002820180548060200260200160405190810160405280929190818152602001828054801561072657602002820191906000526020600020905b8160009054906101000a900473ffffffffffffffffffffffffffffffffffffffff1673ffffffffffffffffffffffffffffffffffffffff16815260200190600101908083116106dc575b5050505050815250509050600073ffffffffffffffffffffffffffffffffffffffff16816040015173ffffffffffffffffffffffffffffffffffffffff161161076e57600080fd5b826000600160008373ffffffffffffffffffffffffffffffffffffffff1673ffffffffffffffffffffffffffffffffffffffff1681526020019081526020016000206040518060600160405290816000820180546107cb9061243d565b80601f01602080910402602001604051908101604052809291908181526020018280546107f79061243d565b80156108445780601f1061081957610100808354040283529160200191610844565b820191906000526020600020905b81548152906001019060200180831161082757829003601f168201915b505050505081526020016001820160009054906101000a900473ffffffffffffffffffffffffffffffffffffffff1673ffffffffffffffffffffffffffffffffffffffff1673ffffffffffffffffffffffffffffffffffffffff1681526020016002820180548060200260200160405190810160405280929190818152602001828054801561092857602002820191906000526020600020905b8160009054906101000a900473ffffffffffffffffffffffffffffffffffffffff1673ffffffffffffffffffffffffffffffffffffffff16815260200190600101908083116108de575b5050505050815250509050600073ffffffffffffffffffffffffffffffffffffffff16816020015173ffffffffffffffffffffffffffffffffffffffff161161097057600080fd5b6000600260003373ffffffffffffffffffffffffffffffffffffffff1673ffffffffffffffffffffffffffffffffffffffff16815260200190815260200160002090506000600160008873ffffffffffffffffffffffffffffffffffffffff1673ffffffffffffffffffffffffffffffffffffffff16815260200190815260200160002090506001600460003373ffffffffffffffffffffffffffffffffffffffff1673ffffffffffffffffffffffffffffffffffffffff16815260200190815260200160002060008973ffffffffffffffffffffffffffffffffffffffff1673ffffffffffffffffffffffffffffffffffffffff1681526020019081526020016000205410610a7f57600080fd5b81600201879080600181540180825580915050600190039060005260206000200160009091909190916101000a81548173ffffffffffffffffffffffffffffffffffffffff021916908373ffffffffffffffffffffffffffffffffffffffff16021790555060008260020180549050905080600460003373ffffffffffffffffffffffffffffffffffffffff1673ffffffffffffffffffffffffffffffffffffffff16815260200190815260200160002060008a73ffffffffffffffffffffffffffffffffffffffff1673ffffffffffffffffffffffffffffffffffffffff1681526020019081526020016000208190555081600201339080600181540180825580915050600190039060005260206000200160009091909190916101000a81548173ffffffffffffffffffffffffffffffffffffffff021916908373ffffffffffffffffffffffffffffffffffffffff1602179055505050505050505050565b6000600160003373ffffffffffffffffffffffffffffffffffffffff1673ffffffffffffffffffffffffffffffffffffffff168152602001908152602001600020604051806060016040529081600082018054610c3c9061243d565b80601f0160208091040260200160405190810160405280929190818152602001828054610c689061243d565b8015610cb55780601f10610c8a57610100808354040283529160200191610cb5565b820191906000526020600020905b815481529060010190602001808311610c9857829003601f168201915b505050505081526020016001820160009054906101000a900473ffffffffffffffffffffffffffffffffffffffff1673ffffffffffffffffffffffffffffffffffffffff1673ffffffffffffffffffffffffffffffffffffffff16815260200160028201805480602002602001604051908101604052809291908181526020018280548015610d9957602002820191906000526020600020905b8160009054906101000a900473ffffffffffffffffffffffffffffffffffffffff1673ffffffffffffffffffffffffffffffffffffffff1681526020019060010190808311610d4f575b50505050508152505090507fc5d2460186f7233c927e7db2dcc703c0e500b653ca82273b7bfad8045d85a47082604051602001610dd691906124aa565b6040516020818303038152906040528051906020012003610df657600080fd5b600073ffffffffffffffffffffffffffffffffffffffff16816020015173ffffffffffffffffffffffffffffffffffffffff161115610e3457600080fd5b60405180606001604052808381526020013373ffffffffffffffffffffffffffffffffffffffff168152602001600067ffffffffffffffff811115610e7c57610e7b61218e565b5b604051908082528060200260200182016040528015610eaa5781602001602082028036833780820191505090505b50815250600160003373ffffffffffffffffffffffffffffffffffffffff1673ffffffffffffffffffffffffffffffffffffffff1681526020019081526020016000206000820151816000019080519060200190610f09929190611e00565b5060208201518160010160006101000a81548173ffffffffffffffffffffffffffffffffffffffff021916908373ffffffffffffffffffffffffffffffffffffffff1602179055506040820151816002019080519060200190610f6d929190611e86565b509050505050565b6000600260003373ffffffffffffffffffffffffffffffffffffffff1673ffffffffffffffffffffffffffffffffffffffff168152602001908152602001600020604051806080016040529081600082018054610fd19061243d565b80601f0160208091040260200160405190810160405280929190818152602001828054610ffd9061243d565b801561104a5780601f1061101f5761010080835404028352916020019161104a565b820191906000526020600020905b81548152906001019060200180831161102d57829003601f168201915b505050505081526020016001820160009054906101000a900460ff1660ff1660ff1681526020016001820160019054906101000a900473ffffffffffffffffffffffffffffffffffffffff1673ffffffffffffffffffffffffffffffffffffffff1673ffffffffffffffffffffffffffffffffffffffff1681526020016002820180548060200260200160405190810160405280929190818152602001828054801561114b57602002820191906000526020600020905b8160009054906101000a900473ffffffffffffffffffffffffffffffffffffffff1673ffffffffffffffffffffffffffffffffffffffff1681526020019060010190808311611101575b50505050508152505090507fc5d2460186f7233c927e7db2dcc703c0e500b653ca82273b7bfad8045d85a4708360405160200161118891906124aa565b60405160208183030381529060405280519060200120036111a857600080fd5b60008260ff161180156111be575060648260ff16105b6111c757600080fd5b600073ffffffffffffffffffffffffffffffffffffffff16816040015173ffffffffffffffffffffffffffffffffffffffff16111561120557600080fd5b60405180608001604052808481526020018360ff1681526020013373ffffffffffffffffffffffffffffffffffffffff168152602001600067ffffffffffffffff8111156112565761125561218e565b5b6040519080825280602002602001820160405280156112845781602001602082028036833780820191505090505b50815250600260003373ffffffffffffffffffffffffffffffffffffffff1673ffffffffffffffffffffffffffffffffffffffff16815260200190815260200160002060008201518160000190805190602001906112e3929190611e00565b5060208201518160010160006101000a81548160ff021916908360ff16021790555060408201518160010160016101000a81548173ffffffffffffffffffffffffffffffffffffffff021916908373ffffffffffffffffffffffffffffffffffffffff1602179055506060820151816002019080519060200190611368929190611e86565b50905050505050565b606080336000600160008373ffffffffffffffffffffffffffffffffffffffff1673ffffffffffffffffffffffffffffffffffffffff1681526020019081526020016000206040518060600160405290816000820180546113d19061243d565b80601f01602080910402602001604051908101604052809291908181526020018280546113fd9061243d565b801561144a5780601f1061141f5761010080835404028352916020019161144a565b820191906000526020600020905b81548152906001019060200180831161142d57829003601f168201915b505050505081526020016001820160009054906101000a900473ffffffffffffffffffffffffffffffffffffffff1673ffffffffffffffffffffffffffffffffffffffff1673ffffffffffffffffffffffffffffffffffffffff1681526020016002820180548060200260200160405190810160405280929190818152602001828054801561152e57602002820191906000526020600020905b8160009054906101000a900473ffffffffffffffffffffffffffffffffffffffff1673ffffffffffffffffffffffffffffffffffffffff16815260200190600101908083116114e4575b5050505050815250509050600073ffffffffffffffffffffffffffffffffffffffff16816020015173ffffffffffffffffffffffffffffffffffffffff161161157657600080fd5b6000600160003373ffffffffffffffffffffffffffffffffffffffff1673ffffffffffffffffffffffffffffffffffffffff1681526020019081526020016000206040518060600160405290816000820180546115d29061243d565b80601f01602080910402602001604051908101604052809291908181526020018280546115fe9061243d565b801561164b5780601f106116205761010080835404028352916020019161164b565b820191906000526020600020905b81548152906001019060200180831161162e57829003601f168201915b505050505081526020016001820160009054906101000a900473ffffffffffffffffffffffffffffffffffffffff1673ffffffffffffffffffffffffffffffffffffffff1673ffffffffffffffffffffffffffffffffffffffff1681526020016002820180548060200260200160405190810160405280929190818152602001828054801561172f57602002820191906000526020600020905b8160009054906101000a900473ffffffffffffffffffffffffffffffffffffffff1673ffffffffffffffffffffffffffffffffffffffff16815260200190600101908083116116e5575b505050505081525050905080600001518160400151945094505050509091565b6060600080836000600260008373ffffffffffffffffffffffffffffffffffffffff1673ffffffffffffffffffffffffffffffffffffffff1681526020019081526020016000206040518060800160405290816000820180546117b19061243d565b80601f01602080910402602001604051908101604052809291908181526020018280546117dd9061243d565b801561182a5780601f106117ff5761010080835404028352916020019161182a565b820191906000526020600020905b81548152906001019060200180831161180d57829003601f168201915b505050505081526020016001820160009054906101000a900460ff1660ff1660ff1681526020016001820160019054906101000a900473ffffffffffffffffffffffffffffffffffffffff1673ffffffffffffffffffffffffffffffffffffffff1673ffffffffffffffffffffffffffffffffffffffff1681526020016002820180548060200260200160405190810160405280929190818152602001828054801561192b57602002820191906000526020600020905b8160009054906101000a900473ffffffffffffffffffffffffffffffffffffffff1673ffffffffffffffffffffffffffffffffffffffff16815260200190600101908083116118e1575b5050505050815250509050600073ffffffffffffffffffffffffffffffffffffffff16816040015173ffffffffffffffffffffffffffffffffffffffff161161197357600080fd5b336000600160008373ffffffffffffffffffffffffffffffffffffffff1673ffffffffffffffffffffffffffffffffffffffff1681526020019081526020016000206040518060600160405290816000820180546119d09061243d565b80601f01602080910402602001604051908101604052809291908181526020018280546119fc9061243d565b8015611a495780601f10611a1e57610100808354040283529160200191611a49565b820191906000526020600020905b815481529060010190602001808311611a2c57829003601f168201915b505050505081526020016001820160009054906101000a900473ffffffffffffffffffffffffffffffffffffffff1673ffffffffffffffffffffffffffffffffffffffff1673ffffffffffffffffffffffffffffffffffffffff16815260200160028201805480602002602001604051908101604052809291908181526020018280548015611b2d57602002820191906000526020600020905b8160009054906101000a900473ffffffffffffffffffffffffffffffffffffffff1673ffffffffffffffffffffffffffffffffffffffff1681526020019060010190808311611ae3575b5050505050815250509050600073ffffffffffffffffffffffffffffffffffffffff16816020015173ffffffffffffffffffffffffffffffffffffffff1611611b7557600080fd5b6000600260008a73ffffffffffffffffffffffffffffffffffffffff1673ffffffffffffffffffffffffffffffffffffffff168152602001908152602001600020604051806080016040529081600082018054611bd19061243d565b80601f0160208091040260200160405190810160405280929190818152602001828054611bfd9061243d565b8015611c4a5780601f10611c1f57610100808354040283529160200191611c4a565b820191906000526020600020905b815481529060010190602001808311611c2d57829003601f168201915b505050505081526020016001820160009054906101000a900460ff1660ff1660ff1681526020016001820160019054906101000a900473ffffffffffffffffffffffffffffffffffffffff1673ffffffffffffffffffffffffffffffffffffffff1673ffffffffffffffffffffffffffffffffffffffff16815260200160028201805480602002602001604051908101604052809291908181526020018280548015611d4b57602002820191906000526020600020905b8160009054906101000a900473ffffffffffffffffffffffffffffffffffffffff1673ffffffffffffffffffffffffffffffffffffffff1681526020019060010190808311611d01575b50505050508152505090506000600460008b73ffffffffffffffffffffffffffffffffffffffff1673ffffffffffffffffffffffffffffffffffffffff16815260200190815260200160002060003373ffffffffffffffffffffffffffffffffffffffff1673ffffffffffffffffffffffffffffffffffffffff1681526020019081526020016000205411611ddf57600080fd5b80600001518160200151826040015197509750975050505050509193909250565b828054611e0c9061243d565b90600052602060002090601f016020900481019282611e2e5760008555611e75565b82601f10611e4757805160ff1916838001178555611e75565b82800160010185558215611e75579182015b82811115611e74578251825591602001919060010190611e59565b5b509050611e829190611f10565b5090565b828054828255906000526020600020908101928215611eff579160200282015b82811115611efe5782518260006101000a81548173ffffffffffffffffffffffffffffffffffffffff021916908373ffffffffffffffffffffffffffffffffffffffff16021790555091602001919060010190611ea6565b5b509050611f0c9190611f10565b5090565b5b80821115611f29576000816000905550600101611f11565b5090565b600081519050919050565b600082825260208201905092915050565b60005b83811015611f67578082015181840152602081019050611f4c565b83811115611f76576000848401525b50505050565b6000601f19601f8301169050919050565b6000611f9882611f2d565b611fa28185611f38565b9350611fb2818560208601611f49565b611fbb81611f7c565b840191505092915050565b600060ff82169050919050565b611fdc81611fc6565b82525050565b600081519050919050565b600082825260208201905092915050565b6000819050602082019050919050565b600073ffffffffffffffffffffffffffffffffffffffff82169050919050565b60006120398261200e565b9050919050565b6120498161202e565b82525050565b600061205b8383612040565b60208301905092915050565b6000602082019050919050565b600061207f82611fe2565b6120898185611fed565b935061209483611ffe565b8060005b838110156120c55781516120ac888261204f565b97506120b783612067565b925050600181019050612098565b5085935050505092915050565b600060608201905081810360008301526120ec8186611f8d565b90506120fb6020830185611fd3565b818103604083015261210d8184612074565b9050949350505050565b6000604051905090565b600080fd5b600080fd5b6121348161202e565b811461213f57600080fd5b50565b6000813590506121518161212b565b92915050565b60006020828403121561216d5761216c612121565b5b600061217b84828501612142565b91505092915050565b600080fd5b600080fd5b7f4e487b7100000000000000000000000000000000000000000000000000000000600052604160045260246000fd5b6121c682611f7c565b810181811067ffffffffffffffff821117156121e5576121e461218e565b5b80604052505050565b60006121f8612117565b905061220482826121bd565b919050565b600067ffffffffffffffff8211156122245761222361218e565b5b61222d82611f7c565b9050602081019050919050565b82818337600083830152505050565b600061225c61225784612209565b6121ee565b90508281526020810184848401111561227857612277612189565b5b61228384828561223a565b509392505050565b600082601f8301126122a05761229f612184565b5b81356122b0848260208601612249565b91505092915050565b6000602082840312156122cf576122ce612121565b5b600082013567ffffffffffffffff8111156122ed576122ec612126565b5b6122f98482850161228b565b91505092915050565b61230b81611fc6565b811461231657600080fd5b50565b60008135905061232881612302565b92915050565b6000806040838503121561234557612344612121565b5b600083013567ffffffffffffffff81111561236357612362612126565b5b61236f8582860161228b565b925050602061238085828601612319565b9150509250929050565b600060408201905081810360008301526123a48185611f8d565b905081810360208301526123b88184612074565b90509392505050565b6123ca8161202e565b82525050565b600060608201905081810360008301526123ea8186611f8d565b90506123f96020830185611fd3565b61240660408301846123c1565b949350505050565b7f4e487b7100000000000000000000000000000000000000000000000000000000600052602260045260246000fd5b6000600282049050600182168061245557607f821691505b6020821081036124685761246761240e565b5b50919050565b600081905092915050565b600061248482611f2d565b61248e818561246e565b935061249e818560208601611f49565b80840191505092915050565b60006124b68284612479565b91508190509291505056fea2646970667358221220e213e957858cdb5102331361a3c4fae2f3c2610b158824c59e02d306e491c94464736f6c634300080d0033",
  "immutableReferences": {},
  "source": "// SPDX-License-Identifier: MIT\npragma solidity >=0.4.25 <0.9.0;\n\ncontract HealthCare {\n    address private owner;\n\n    struct Patient {\n        string name;\n        uint8 age;\n        address id;\n        address[] doctor_list;\n    }\n\n    struct Doctor {\n        string name;\n        address id;\n        address[] patient_list;\n    }\n\n    mapping(address => Doctor) private doctors;\n    mapping(address => Patient) private patients;\n    mapping(address => mapping(address => uint256)) private doctorToPatient; // doctors to patient list\n    mapping(address => mapping(address => uint256)) private patientToDoctor;\n\n    constructor() {\n        owner = msg.sender;\n    }\n\n    modifier checkDoctor(address id) {\n        Doctor memory d = doctors[id];\n        require(d.id > address(0x0)); //check if doctor exist\n        _;\n    }\n\n    modifier checkPatient(address id) {\n        Patient memory p = patients[id];\n        require(p.id > address(0x0)); //check if patient exist\n        _;\n    }\n\n    modifier onlyOwner() {\n        require(msg.sender == owner);\n        _;\n    }\n\n    //   modifier checkFileAccess(string memory role, address id, bytes32 fileHashId, address pat) {\n    //     uint pos;\n    //     if(keccak256(abi.encodePacked(role)) == keccak256(\"doctor\")) {\n    //         require(patientToDoctor[pat][id] > 0);\n    //         pos = patientToFile[pat][fileHashId];\n    //         require(pos > 0);\n    //     }\n    //     else if(keccak256(abi.encodePacked(role)) == keccak256(\"patient\")) {\n    //         pos = patientToFile[id][fileHashId];\n    //         require(pos > 0);\n    //     }\n    //     _;\n    //   }\n\n    //   modifier checkFile(bytes32 fileHashId) {\n    //     bytes memory tempString = bytes(hashToFile[fileHashId].file_name);\n    //     require(tempString.length > 0);//check if file exist\n    //     _;\n    //   }\n\n    function signupPatient(string memory _name, uint8 _age) public {\n        Patient memory p = patients[msg.sender];\n        require(keccak256(abi.encodePacked(_name)) != keccak256(\"\"));\n        require((_age > 0) && (_age < 100));\n        require(!(p.id > address(0x0)));\n\n        patients[msg.sender] = Patient({\n            name: _name,\n            age: _age,\n            id: msg.sender,\n            doctor_list: new address[](0)\n        });\n    }\n\n    function signupDoctor(string memory _name) public {\n        Doctor memory d = doctors[msg.sender];\n        require(keccak256(abi.encodePacked(_name)) != keccak256(\"\"));\n        require(!(d.id > address(0x0)));\n\n        doctors[msg.sender] = Doctor({\n            name: _name,\n            id: msg.sender,\n            patient_list: new address[](0)\n        });\n    }\n\n    function grantAccessToDoctor(\n        address doctor_id\n    ) public checkPatient(msg.sender) checkDoctor(doctor_id) {\n        Patient storage p = patients[msg.sender];\n        Doctor storage d = doctors[doctor_id];\n        require(patientToDoctor[msg.sender][doctor_id] < 1); // this means doctor already been access\n\n        p.doctor_list.push(doctor_id); // new length of array\n        // gpos = pos;\n        uint pos = p.doctor_list.length;\n        patientToDoctor[msg.sender][doctor_id] = pos;\n        d.patient_list.push(msg.sender);\n    }\n\n    //   function addFile(string memory _file_name, string memory _file_type, bytes32 _fileHash, string memory _file_secret) public checkPatient(msg.sender) {\n    //       patient storage p = patients[msg.sender];\n\n    //       require(patientToFile[msg.sender][_fileHash] < 1);\n\n    //       hashToFile[_fileHash] = filesInfo({file_name:_file_name, file_type:_file_type,file_secret:_file_secret});\n    //       uint pos = p.files.push(_fileHash);\n    //       patientToFile[msg.sender][_fileHash] = pos;\n    //   }\n\n    function getPatientProfile()\n        public\n        view\n        checkPatient(msg.sender)\n        returns (string memory, uint8, address[] memory)\n    {\n        Patient memory p = patients[msg.sender];\n        return (p.name, p.age, p.doctor_list);\n    }\n\n    function getDoctorProfile()\n        public\n        view\n        checkDoctor(msg.sender)\n        returns (string memory, address[] memory)\n    {\n        Doctor memory d = doctors[msg.sender];\n        return (d.name, d.patient_list);\n    }\n\n    //   function checkProfile(address _user) public view onlyOwner returns(string memory, string memory){\n    //       patient memory p = patients[_user];\n    //       doctor memory d = doctors[_user];\n\n    //       if(p.id > address(0x0))\n    //           return (p.name, 'patient');\n    //       else if(d.id > address(0x0))\n    //           return (d.name, 'doctor');\n    //       else\n    //           return ('', '');\n    //   }\n\n    function getPatientInfoForDoctor(\n        address pat\n    )\n        public\n        view\n        checkPatient(pat)\n        checkDoctor(msg.sender)\n        returns (string memory, uint8, address)\n    {\n        Patient memory p = patients[pat];\n\n        require(patientToDoctor[pat][msg.sender] > 0);\n\n        return (p.name, p.age, p.id);\n    }\n\n    //   function getFileInfo(bytes32 fileHashId) private view checkFile(fileHashId) returns(filesInfo memory) {\n    //       return hashToFile[fileHashId];\n    //   }\n\n    //   function getFileSecret(bytes32 fileHashId, string memory role, address id, address pat) public view\n    //   checkFile(fileHashId) checkFileAccess(role, id, fileHashId, pat)\n    //   returns(string memory) {\n    //       filesInfo memory f = getFileInfo(fileHashId);\n    //       return (f.file_secret);\n    //   }\n\n    //   function getFileInfoDoctor(address doc, address pat, bytes32 fileHashId) public view\n    //   onlyOwner checkPatient(pat) checkDoctor(doc) checkFileAccess(\"doctor\", doc, fileHashId, pat)\n    //   returns(string memory, string memory) {\n    //       filesInfo memory f = getFileInfo(fileHashId);\n    //       return (f.file_name, f.file_type);\n    //   }\n\n    //   function getFileInfoPatient(address pat, bytes32 fileHashId) public view\n    //   onlyOwner checkPatient(pat) checkFileAccess(\"patient\", pat, fileHashId, pat) returns(string memory, string memory) {\n    //       filesInfo memory f = getFileInfo(fileHashId);\n    //       return (f.file_name, f.file_type);\n    //   }\n}\n",
  "sourcePath": "/home/gulshan/Desktop/projects/web3/HealthCare-Project/src/contracts/HealthCare.sol",
  "compiler": {
    "name": "solc",
    "version": "0.8.13+commit.abaa5c0e.Emscripten.clang"
  },
  "schemaVersion": "3.4.10",
  "updatedAt": "2022-12-04T11:58:12.682Z",
  "networkType": "ethereum",
  "devdoc": {
    "kind": "dev",
    "methods": {},
    "version": 1
  },
  "userdoc": {
    "kind": "user",
    "methods": {},
    "version": 1
  }
}