{
  "contractName": "HealthCare",
  "abi": [
    {
      "inputs": [],
      "stateMutability": "nonpayable",
      "type": "constructor"
    },
    {
      "anonymous": false,
      "inputs": [
        {
          "indexed": false,
          "internalType": "address",
          "name": "add",
          "type": "address"
        },
        {
          "indexed": false,
          "internalType": "string",
          "name": "name",
          "type": "string"
        },
        {
          "indexed": false,
          "internalType": "string",
          "name": "role",
          "type": "string"
        }
      ],
      "name": "Signup",
      "type": "event"
    },
    {
      "inputs": [
        {
          "internalType": "string",
          "name": "_name",
          "type": "string"
        },
        {
          "internalType": "string",
          "name": "email",
          "type": "string"
        },
        {
          "internalType": "uint256",
          "name": "phone",
          "type": "uint256"
        },
        {
          "internalType": "string",
          "name": "_type_name",
          "type": "string"
        },
        {
          "internalType": "string",
          "name": "_location",
          "type": "string"
        }
      ],
      "name": "addDoctor",
      "outputs": [],
      "stateMutability": "nonpayable",
      "type": "function"
    },
    {
      "inputs": [
        {
          "internalType": "string",
          "name": "_name",
          "type": "string"
        },
        {
          "internalType": "uint256",
          "name": "_phone",
          "type": "uint256"
        },
        {
          "internalType": "string",
          "name": "_email",
          "type": "string"
        },
        {
          "internalType": "string",
          "name": "_dob",
          "type": "string"
        },
        {
          "internalType": "string",
          "name": "_bloodGroup",
          "type": "string"
        },
        {
          "internalType": "string",
          "name": "_permanentAddress",
          "type": "string"
        }
      ],
      "name": "addPatient",
      "outputs": [],
      "stateMutability": "nonpayable",
      "type": "function"
    },
    {
      "inputs": [
        {
          "internalType": "string",
          "name": "name",
          "type": "string"
        },
        {
          "internalType": "string",
          "name": "descr",
          "type": "string"
        },
        {
          "internalType": "string",
          "name": "location",
          "type": "string"
        },
        {
          "internalType": "uint256",
          "name": "_phone",
          "type": "uint256"
        },
        {
          "internalType": "string",
          "name": "_email",
          "type": "string"
        }
      ],
      "name": "addHospital",
      "outputs": [],
      "stateMutability": "nonpayable",
      "type": "function"
    },
    {
      "inputs": [],
      "name": "Login",
      "outputs": [
        {
          "internalType": "address",
          "name": "id",
          "type": "address"
        },
        {
          "internalType": "string",
          "name": "name",
          "type": "string"
        },
        {
          "internalType": "string",
          "name": "email",
          "type": "string"
        },
        {
          "internalType": "string",
          "name": "role",
          "type": "string"
        }
      ],
      "stateMutability": "view",
      "type": "function",
      "constant": true
    },
    {
      "inputs": [
        {
          "internalType": "address",
          "name": "pAddress",
          "type": "address"
        }
      ],
      "name": "getPatientInfo",
      "outputs": [
        {
          "internalType": "string",
          "name": "name",
          "type": "string"
        },
        {
          "internalType": "string",
          "name": "email",
          "type": "string"
        },
        {
          "internalType": "uint256",
          "name": "phone",
          "type": "uint256"
        },
        {
          "components": [
            {
              "internalType": "uint256",
              "name": "ID",
              "type": "uint256"
            },
            {
              "internalType": "string",
              "name": "testName",
              "type": "string"
            },
            {
              "internalType": "address",
              "name": "hospital",
              "type": "address"
            },
            {
              "internalType": "address",
              "name": "doctor",
              "type": "address"
            },
            {
              "internalType": "uint256",
              "name": "price",
              "type": "uint256"
            },
            {
              "internalType": "string",
              "name": "date",
              "type": "string"
            },
            {
              "internalType": "uint256",
              "name": "value",
              "type": "uint256"
            },
            {
              "internalType": "uint256",
              "name": "min",
              "type": "uint256"
            },
            {
              "internalType": "uint256",
              "name": "max",
              "type": "uint256"
            },
            {
              "internalType": "uint256",
              "name": "weight",
              "type": "uint256"
            },
            {
              "internalType": "address[]",
              "name": "signatures",
              "type": "address[]"
            }
          ],
          "internalType": "struct HealthCare.Analysis[]",
          "name": "",
          "type": "tuple[]"
        }
      ],
      "stateMutability": "view",
      "type": "function",
      "constant": true
    },
    {
      "inputs": [
        {
          "internalType": "address",
          "name": "dAddress",
          "type": "address"
        }
      ],
      "name": "getDoctorInfo",
      "outputs": [
        {
          "internalType": "string",
          "name": "name",
          "type": "string"
        },
        {
          "internalType": "string",
          "name": "email",
          "type": "string"
        },
        {
          "internalType": "uint256",
          "name": "phone",
          "type": "uint256"
        },
        {
          "internalType": "address",
          "name": "hospital",
          "type": "address"
        }
      ],
      "stateMutability": "view",
      "type": "function",
      "constant": true
    },
    {
      "inputs": [],
      "name": "getPatientProfile",
      "outputs": [
        {
          "internalType": "string",
          "name": "name",
          "type": "string"
        },
        {
          "internalType": "string",
          "name": "email",
          "type": "string"
        },
        {
          "internalType": "string",
          "name": "dob",
          "type": "string"
        },
        {
          "internalType": "string",
          "name": "bloodGroup",
          "type": "string"
        },
        {
          "internalType": "string",
          "name": "permanentAddress",
          "type": "string"
        },
        {
          "components": [
            {
              "internalType": "uint256",
              "name": "ID",
              "type": "uint256"
            },
            {
              "internalType": "string",
              "name": "testName",
              "type": "string"
            },
            {
              "internalType": "address",
              "name": "hospital",
              "type": "address"
            },
            {
              "internalType": "address",
              "name": "doctor",
              "type": "address"
            },
            {
              "internalType": "uint256",
              "name": "price",
              "type": "uint256"
            },
            {
              "internalType": "string",
              "name": "date",
              "type": "string"
            },
            {
              "internalType": "uint256",
              "name": "value",
              "type": "uint256"
            },
            {
              "internalType": "uint256",
              "name": "min",
              "type": "uint256"
            },
            {
              "internalType": "uint256",
              "name": "max",
              "type": "uint256"
            },
            {
              "internalType": "uint256",
              "name": "weight",
              "type": "uint256"
            },
            {
              "internalType": "address[]",
              "name": "signatures",
              "type": "address[]"
            }
          ],
          "internalType": "struct HealthCare.Analysis[]",
          "name": "",
          "type": "tuple[]"
        }
      ],
      "stateMutability": "view",
      "type": "function",
      "constant": true
    }
  ],
  "bytecode": "0x608060405234801561001057600080fd5b50336000806101000a81548173ffffffffffffffffffffffffffffffffffffffff021916908373ffffffffffffffffffffffffffffffffffffffff1602179055506144f6806100606000396000f3fe608060405234801561001057600080fd5b506004361061007d5760003560e01c806359f8d36c1161005b57806359f8d36c146100f45780636f12fc3514610110578063d70e5c8614610143578063f00ac1da1461015f5761007d565b80631644f440146100825780631d79e363146100a55780634b426178146100c1575b600080fd5b61008a610180565b60405161009c969594939291906139fd565b60405180910390f35b6100bf60048036038101906100ba9190613bfd565b6108e5565b005b6100db60048036038101906100d69190613d14565b610e62565b6040516100eb9493929190613d50565b60405180910390f35b61010e60048036038101906101099190613daa565b611ca8565b005b61012a60048036038101906101259190613d14565b6122df565b60405161013a9493929190613ea4565b60405180910390f35b61015d60048036038101906101589190613ef7565b6126c8565b005b6101676129d6565b6040516101779493929190614010565b60405180910390f35b6060806060806060806000600360003373ffffffffffffffffffffffffffffffffffffffff1673ffffffffffffffffffffffffffffffffffffffff1681526020019081526020016000206040518060e00160405290816000820160009054906101000a900473ffffffffffffffffffffffffffffffffffffffff1673ffffffffffffffffffffffffffffffffffffffff1673ffffffffffffffffffffffffffffffffffffffff16815260200160018201805461023b90614099565b80601f016020809104026020016040519081016040528092919081815260200182805461026790614099565b80156102b45780601f10610289576101008083540402835291602001916102b4565b820191906000526020600020905b81548152906001019060200180831161029757829003601f168201915b50505050508152602001600282015481526020016003820180546102d790614099565b80601f016020809104026020016040519081016040528092919081815260200182805461030390614099565b80156103505780601f1061032557610100808354040283529160200191610350565b820191906000526020600020905b81548152906001019060200180831161033357829003601f168201915b5050505050815260200160048201805461036990614099565b80601f016020809104026020016040519081016040528092919081815260200182805461039590614099565b80156103e25780601f106103b7576101008083540402835291602001916103e2565b820191906000526020600020905b8154815290600101906020018083116103c557829003601f168201915b505050505081526020016005820180546103fb90614099565b80601f016020809104026020016040519081016040528092919081815260200182805461042790614099565b80156104745780601f1061044957610100808354040283529160200191610474565b820191906000526020600020905b81548152906001019060200180831161045757829003601f168201915b5050505050815260200160068201805461048d90614099565b80601f01602080910402602001604051908101604052809291908181526020018280546104b990614099565b80156105065780601f106104db57610100808354040283529160200191610506565b820191906000526020600020905b8154815290600101906020018083116104e957829003601f168201915b5050505050815250509050600073ffffffffffffffffffffffffffffffffffffffff16816000015173ffffffffffffffffffffffffffffffffffffffff1611610584576040517f08c379a000000000000000000000000000000000000000000000000000000000815260040161057b90614116565b60405180910390fd5b8060200151816060015182608001518360a001518460c00151600460003373ffffffffffffffffffffffffffffffffffffffff1673ffffffffffffffffffffffffffffffffffffffff16815260200190815260200160002080805480602002602001604051908101604052809291908181526020016000905b828210156108ca57838290600052602060002090600b0201604051806101600160405290816000820154815260200160018201805461063b90614099565b80601f016020809104026020016040519081016040528092919081815260200182805461066790614099565b80156106b45780601f10610689576101008083540402835291602001916106b4565b820191906000526020600020905b81548152906001019060200180831161069757829003601f168201915b505050505081526020016002820160009054906101000a900473ffffffffffffffffffffffffffffffffffffffff1673ffffffffffffffffffffffffffffffffffffffff1673ffffffffffffffffffffffffffffffffffffffff1681526020016003820160009054906101000a900473ffffffffffffffffffffffffffffffffffffffff1673ffffffffffffffffffffffffffffffffffffffff1673ffffffffffffffffffffffffffffffffffffffff1681526020016004820154815260200160058201805461078390614099565b80601f01602080910402602001604051908101604052809291908181526020018280546107af90614099565b80156107fc5780601f106107d1576101008083540402835291602001916107fc565b820191906000526020600020905b8154815290600101906020018083116107df57829003601f168201915b5050505050815260200160068201548152602001600782015481526020016008820154815260200160098201548152602001600a82018054806020026020016040519081016040528092919081815260200182805480156108b257602002820191906000526020600020905b8160009054906101000a900473ffffffffffffffffffffffffffffffffffffffff1673ffffffffffffffffffffffffffffffffffffffff1681526020019060010190808311610868575b505050505081525050815260200190600101906105fd565b50505050905096509650965096509650965050909192939495565b6000600160003373ffffffffffffffffffffffffffffffffffffffff1673ffffffffffffffffffffffffffffffffffffffff1681526020019081526020016000206040518060c00160405290816000820160009054906101000a900473ffffffffffffffffffffffffffffffffffffffff1673ffffffffffffffffffffffffffffffffffffffff1673ffffffffffffffffffffffffffffffffffffffff16815260200160018201805461099790614099565b80601f01602080910402602001604051908101604052809291908181526020018280546109c390614099565b8015610a105780601f106109e557610100808354040283529160200191610a10565b820191906000526020600020905b8154815290600101906020018083116109f357829003601f168201915b50505050508152602001600282018054610a2990614099565b80601f0160208091040260200160405190810160405280929190818152602001828054610a5590614099565b8015610aa25780601f10610a7757610100808354040283529160200191610aa2565b820191906000526020600020905b815481529060010190602001808311610a8557829003601f168201915b5050505050815260200160038201548152602001600482018054610ac590614099565b80601f0160208091040260200160405190810160405280929190818152602001828054610af190614099565b8015610b3e5780601f10610b1357610100808354040283529160200191610b3e565b820191906000526020600020905b815481529060010190602001808311610b2157829003601f168201915b50505050508152602001600582018054610b5790614099565b80601f0160208091040260200160405190810160405280929190818152602001828054610b8390614099565b8015610bd05780601f10610ba557610100808354040283529160200191610bd0565b820191906000526020600020905b815481529060010190602001808311610bb357829003601f168201915b50505050508152505090507fc5d2460186f7233c927e7db2dcc703c0e500b653ca82273b7bfad8045d85a47086604051602001610c0d9190614172565b6040516020818303038152906040528051906020012003610c63576040517f08c379a0000000000000000000000000000000000000000000000000000000008152600401610c5a906141af565b60405180910390fd5b600073ffffffffffffffffffffffffffffffffffffffff16816000015173ffffffffffffffffffffffffffffffffffffffff161115610cd7576040517f08c379a0000000000000000000000000000000000000000000000000000000008152600401610cce9061421b565b60405180910390fd5b6040518060c001604052803373ffffffffffffffffffffffffffffffffffffffff16815260200187815260200183815260200184815260200186815260200185815250600160003373ffffffffffffffffffffffffffffffffffffffff1673ffffffffffffffffffffffffffffffffffffffff16815260200190815260200160002060008201518160000160006101000a81548173ffffffffffffffffffffffffffffffffffffffff021916908373ffffffffffffffffffffffffffffffffffffffff1602179055506020820151816001019080519060200190610dbc9291906135af565b506040820151816002019080519060200190610dd99291906135af565b50606082015181600301556080820151816004019080519060200190610e009291906135af565b5060a0820151816005019080519060200190610e1d9291906135af565b509050507f807cc07179f4a5c23823cab6e41e49bfd0d66ab9891a7669cd7a3a014304db1e3387604051610e52929190614287565b60405180910390a1505050505050565b606080600060606000600160003373ffffffffffffffffffffffffffffffffffffffff1673ffffffffffffffffffffffffffffffffffffffff1681526020019081526020016000206040518060c00160405290816000820160009054906101000a900473ffffffffffffffffffffffffffffffffffffffff1673ffffffffffffffffffffffffffffffffffffffff1673ffffffffffffffffffffffffffffffffffffffff168152602001600182018054610f1b90614099565b80601f0160208091040260200160405190810160405280929190818152602001828054610f4790614099565b8015610f945780601f10610f6957610100808354040283529160200191610f94565b820191906000526020600020905b815481529060010190602001808311610f7757829003601f168201915b50505050508152602001600282018054610fad90614099565b80601f0160208091040260200160405190810160405280929190818152602001828054610fd990614099565b80156110265780601f10610ffb57610100808354040283529160200191611026565b820191906000526020600020905b81548152906001019060200180831161100957829003601f168201915b505050505081526020016003820154815260200160048201805461104990614099565b80601f016020809104026020016040519081016040528092919081815260200182805461107590614099565b80156110c25780601f10611097576101008083540402835291602001916110c2565b820191906000526020600020905b8154815290600101906020018083116110a557829003601f168201915b505050505081526020016005820180546110db90614099565b80601f016020809104026020016040519081016040528092919081815260200182805461110790614099565b80156111545780601f1061112957610100808354040283529160200191611154565b820191906000526020600020905b81548152906001019060200180831161113757829003601f168201915b50505050508152505090506000600260003373ffffffffffffffffffffffffffffffffffffffff1673ffffffffffffffffffffffffffffffffffffffff1681526020019081526020016000206040518060e00160405290816000820160009054906101000a900473ffffffffffffffffffffffffffffffffffffffff1673ffffffffffffffffffffffffffffffffffffffff1673ffffffffffffffffffffffffffffffffffffffff16815260200160018201805461121190614099565b80601f016020809104026020016040519081016040528092919081815260200182805461123d90614099565b801561128a5780601f1061125f5761010080835404028352916020019161128a565b820191906000526020600020905b81548152906001019060200180831161126d57829003601f168201915b505050505081526020016002820180546112a390614099565b80601f01602080910402602001604051908101604052809291908181526020018280546112cf90614099565b801561131c5780601f106112f15761010080835404028352916020019161131c565b820191906000526020600020905b8154815290600101906020018083116112ff57829003601f168201915b505050505081526020016003820154815260200160048201805461133f90614099565b80601f016020809104026020016040519081016040528092919081815260200182805461136b90614099565b80156113b85780601f1061138d576101008083540402835291602001916113b8565b820191906000526020600020905b81548152906001019060200180831161139b57829003601f168201915b505050505081526020016005820180546113d190614099565b80601f01602080910402602001604051908101604052809291908181526020018280546113fd90614099565b801561144a5780601f1061141f5761010080835404028352916020019161144a565b820191906000526020600020905b81548152906001019060200180831161142d57829003601f168201915b505050505081526020016006820160009054906101000a900473ffffffffffffffffffffffffffffffffffffffff1673ffffffffffffffffffffffffffffffffffffffff1673ffffffffffffffffffffffffffffffffffffffff16815250509050600073ffffffffffffffffffffffffffffffffffffffff16826000015173ffffffffffffffffffffffffffffffffffffffff16118061151a5750600073ffffffffffffffffffffffffffffffffffffffff16816000015173ffffffffffffffffffffffffffffffffffffffff16115b611559576040517f08c379a000000000000000000000000000000000000000000000000000000000815260040161155090614316565b60405180910390fd5b6000600360008973ffffffffffffffffffffffffffffffffffffffff1673ffffffffffffffffffffffffffffffffffffffff1681526020019081526020016000206040518060e00160405290816000820160009054906101000a900473ffffffffffffffffffffffffffffffffffffffff1673ffffffffffffffffffffffffffffffffffffffff1673ffffffffffffffffffffffffffffffffffffffff16815260200160018201805461160b90614099565b80601f016020809104026020016040519081016040528092919081815260200182805461163790614099565b80156116845780601f1061165957610100808354040283529160200191611684565b820191906000526020600020905b81548152906001019060200180831161166757829003601f168201915b50505050508152602001600282015481526020016003820180546116a790614099565b80601f01602080910402602001604051908101604052809291908181526020018280546116d390614099565b80156117205780601f106116f557610100808354040283529160200191611720565b820191906000526020600020905b81548152906001019060200180831161170357829003601f168201915b5050505050815260200160048201805461173990614099565b80601f016020809104026020016040519081016040528092919081815260200182805461176590614099565b80156117b25780601f10611787576101008083540402835291602001916117b2565b820191906000526020600020905b81548152906001019060200180831161179557829003601f168201915b505050505081526020016005820180546117cb90614099565b80601f01602080910402602001604051908101604052809291908181526020018280546117f790614099565b80156118445780601f1061181957610100808354040283529160200191611844565b820191906000526020600020905b81548152906001019060200180831161182757829003601f168201915b5050505050815260200160068201805461185d90614099565b80601f016020809104026020016040519081016040528092919081815260200182805461188990614099565b80156118d65780601f106118ab576101008083540402835291602001916118d6565b820191906000526020600020905b8154815290600101906020018083116118b957829003601f168201915b5050505050815250509050600073ffffffffffffffffffffffffffffffffffffffff16816000015173ffffffffffffffffffffffffffffffffffffffff1611611954576040517f08c379a000000000000000000000000000000000000000000000000000000000815260040161194b90614382565b60405180910390fd5b806020015181606001518260400151600460003373ffffffffffffffffffffffffffffffffffffffff1673ffffffffffffffffffffffffffffffffffffffff16815260200190815260200160002080805480602002602001604051908101604052809291908181526020016000905b82821015611c9057838290600052602060002090600b02016040518061016001604052908160008201548152602001600182018054611a0190614099565b80601f0160208091040260200160405190810160405280929190818152602001828054611a2d90614099565b8015611a7a5780601f10611a4f57610100808354040283529160200191611a7a565b820191906000526020600020905b815481529060010190602001808311611a5d57829003601f168201915b505050505081526020016002820160009054906101000a900473ffffffffffffffffffffffffffffffffffffffff1673ffffffffffffffffffffffffffffffffffffffff1673ffffffffffffffffffffffffffffffffffffffff1681526020016003820160009054906101000a900473ffffffffffffffffffffffffffffffffffffffff1673ffffffffffffffffffffffffffffffffffffffff1673ffffffffffffffffffffffffffffffffffffffff16815260200160048201548152602001600582018054611b4990614099565b80601f0160208091040260200160405190810160405280929190818152602001828054611b7590614099565b8015611bc25780601f10611b9757610100808354040283529160200191611bc2565b820191906000526020600020905b815481529060010190602001808311611ba557829003601f168201915b5050505050815260200160068201548152602001600782015481526020016008820154815260200160098201548152602001600a8201805480602002602001604051908101604052809291908181526020018280548015611c7857602002820191906000526020600020905b8160009054906101000a900473ffffffffffffffffffffffffffffffffffffffff1673ffffffffffffffffffffffffffffffffffffffff1681526020019060010190808311611c2e575b505050505081525050815260200190600101906119c3565b50505050905096509650965096505050509193509193565b6000600260003373ffffffffffffffffffffffffffffffffffffffff1673ffffffffffffffffffffffffffffffffffffffff1681526020019081526020016000206040518060e00160405290816000820160009054906101000a900473ffffffffffffffffffffffffffffffffffffffff1673ffffffffffffffffffffffffffffffffffffffff1673ffffffffffffffffffffffffffffffffffffffff168152602001600182018054611d5a90614099565b80601f0160208091040260200160405190810160405280929190818152602001828054611d8690614099565b8015611dd35780601f10611da857610100808354040283529160200191611dd3565b820191906000526020600020905b815481529060010190602001808311611db657829003601f168201915b50505050508152602001600282018054611dec90614099565b80601f0160208091040260200160405190810160405280929190818152602001828054611e1890614099565b8015611e655780601f10611e3a57610100808354040283529160200191611e65565b820191906000526020600020905b815481529060010190602001808311611e4857829003601f168201915b5050505050815260200160038201548152602001600482018054611e8890614099565b80601f0160208091040260200160405190810160405280929190818152602001828054611eb490614099565b8015611f015780601f10611ed657610100808354040283529160200191611f01565b820191906000526020600020905b815481529060010190602001808311611ee457829003601f168201915b50505050508152602001600582018054611f1a90614099565b80601f0160208091040260200160405190810160405280929190818152602001828054611f4690614099565b8015611f935780601f10611f6857610100808354040283529160200191611f93565b820191906000526020600020905b815481529060010190602001808311611f7657829003601f168201915b505050505081526020016006820160009054906101000a900473ffffffffffffffffffffffffffffffffffffffff1673ffffffffffffffffffffffffffffffffffffffff1673ffffffffffffffffffffffffffffffffffffffff168152505090507fc5d2460186f7233c927e7db2dcc703c0e500b653ca82273b7bfad8045d85a470866040516020016120269190614172565b604051602081830303815290604052805190602001200361207c576040517f08c379a0000000000000000000000000000000000000000000000000000000008152600401612073906141af565b60405180910390fd5b600073ffffffffffffffffffffffffffffffffffffffff16816000015173ffffffffffffffffffffffffffffffffffffffff1611156120f0576040517f08c379a00000000000000000000000000000000000000000000000000000000081526004016120e79061421b565b60405180910390fd5b6040518060e001604052803373ffffffffffffffffffffffffffffffffffffffff168152602001878152602001868152602001858152602001848152602001838152602001600073ffffffffffffffffffffffffffffffffffffffff16815250600260003373ffffffffffffffffffffffffffffffffffffffff1673ffffffffffffffffffffffffffffffffffffffff16815260200190815260200160002060008201518160000160006101000a81548173ffffffffffffffffffffffffffffffffffffffff021916908373ffffffffffffffffffffffffffffffffffffffff16021790555060208201518160010190805190602001906121f29291906135af565b50604082015181600201908051906020019061220f9291906135af565b506060820151816003015560808201518160040190805190602001906122369291906135af565b5060a08201518160050190805190602001906122539291906135af565b5060c08201518160060160006101000a81548173ffffffffffffffffffffffffffffffffffffffff021916908373ffffffffffffffffffffffffffffffffffffffff1602179055509050507f807cc07179f4a5c23823cab6e41e49bfd0d66ab9891a7669cd7a3a014304db1e33876040516122cf9291906143ee565b60405180910390a1505050505050565b6060806000806000600260008773ffffffffffffffffffffffffffffffffffffffff1673ffffffffffffffffffffffffffffffffffffffff1681526020019081526020016000206040518060e00160405290816000820160009054906101000a900473ffffffffffffffffffffffffffffffffffffffff1673ffffffffffffffffffffffffffffffffffffffff1673ffffffffffffffffffffffffffffffffffffffff16815260200160018201805461239790614099565b80601f01602080910402602001604051908101604052809291908181526020018280546123c390614099565b80156124105780601f106123e557610100808354040283529160200191612410565b820191906000526020600020905b8154815290600101906020018083116123f357829003601f168201915b5050505050815260200160028201805461242990614099565b80601f016020809104026020016040519081016040528092919081815260200182805461245590614099565b80156124a25780601f10612477576101008083540402835291602001916124a2565b820191906000526020600020905b81548152906001019060200180831161248557829003601f168201915b50505050508152602001600382015481526020016004820180546124c590614099565b80601f01602080910402602001604051908101604052809291908181526020018280546124f190614099565b801561253e5780601f106125135761010080835404028352916020019161253e565b820191906000526020600020905b81548152906001019060200180831161252157829003601f168201915b5050505050815260200160058201805461255790614099565b80601f016020809104026020016040519081016040528092919081815260200182805461258390614099565b80156125d05780601f106125a5576101008083540402835291602001916125d0565b820191906000526020600020905b8154815290600101906020018083116125b357829003601f168201915b505050505081526020016006820160009054906101000a900473ffffffffffffffffffffffffffffffffffffffff1673ffffffffffffffffffffffffffffffffffffffff1673ffffffffffffffffffffffffffffffffffffffff16815250509050600073ffffffffffffffffffffffffffffffffffffffff16816000015173ffffffffffffffffffffffffffffffffffffffff16116126a4576040517f08c379a000000000000000000000000000000000000000000000000000000000815260040161269b90614116565b60405180910390fd5b8060200151816040015182606001518360c001519450945094509450509193509193565b6000600360003373ffffffffffffffffffffffffffffffffffffffff1673ffffffffffffffffffffffffffffffffffffffff16815260200190815260200160002090507fc5d2460186f7233c927e7db2dcc703c0e500b653ca82273b7bfad8045d85a4708760405160200161273d9190614172565b6040516020818303038152906040528051906020012003612793576040517f08c379a000000000000000000000000000000000000000000000000000000000815260040161278a906141af565b60405180910390fd5b600073ffffffffffffffffffffffffffffffffffffffff168160000160009054906101000a900473ffffffffffffffffffffffffffffffffffffffff1673ffffffffffffffffffffffffffffffffffffffff161115612827576040517f08c379a000000000000000000000000000000000000000000000000000000000815260040161281e9061421b565b60405180910390fd5b6040518060e001604052803373ffffffffffffffffffffffffffffffffffffffff16815260200188815260200187815260200186815260200185815260200184815260200183815250600360003373ffffffffffffffffffffffffffffffffffffffff1673ffffffffffffffffffffffffffffffffffffffff16815260200190815260200160002060008201518160000160006101000a81548173ffffffffffffffffffffffffffffffffffffffff021916908373ffffffffffffffffffffffffffffffffffffffff16021790555060208201518160010190805190602001906129129291906135af565b506040820151816002015560608201518160030190805190602001906129399291906135af565b5060808201518160040190805190602001906129569291906135af565b5060a08201518160050190805190602001906129739291906135af565b5060c08201518160060190805190602001906129909291906135af565b509050507f807cc07179f4a5c23823cab6e41e49bfd0d66ab9891a7669cd7a3a014304db1e33886040516129c592919061447d565b60405180910390a150505050505050565b600060608060606000600360003373ffffffffffffffffffffffffffffffffffffffff1673ffffffffffffffffffffffffffffffffffffffff1681526020019081526020016000206040518060e00160405290816000820160009054906101000a900473ffffffffffffffffffffffffffffffffffffffff1673ffffffffffffffffffffffffffffffffffffffff1673ffffffffffffffffffffffffffffffffffffffff168152602001600182018054612a8f90614099565b80601f0160208091040260200160405190810160405280929190818152602001828054612abb90614099565b8015612b085780601f10612add57610100808354040283529160200191612b08565b820191906000526020600020905b815481529060010190602001808311612aeb57829003601f168201915b5050505050815260200160028201548152602001600382018054612b2b90614099565b80601f0160208091040260200160405190810160405280929190818152602001828054612b5790614099565b8015612ba45780601f10612b7957610100808354040283529160200191612ba4565b820191906000526020600020905b815481529060010190602001808311612b8757829003601f168201915b50505050508152602001600482018054612bbd90614099565b80601f0160208091040260200160405190810160405280929190818152602001828054612be990614099565b8015612c365780601f10612c0b57610100808354040283529160200191612c36565b820191906000526020600020905b815481529060010190602001808311612c1957829003601f168201915b50505050508152602001600582018054612c4f90614099565b80601f0160208091040260200160405190810160405280929190818152602001828054612c7b90614099565b8015612cc85780601f10612c9d57610100808354040283529160200191612cc8565b820191906000526020600020905b815481529060010190602001808311612cab57829003601f168201915b50505050508152602001600682018054612ce190614099565b80601f0160208091040260200160405190810160405280929190818152602001828054612d0d90614099565b8015612d5a5780601f10612d2f57610100808354040283529160200191612d5a565b820191906000526020600020905b815481529060010190602001808311612d3d57829003601f168201915b50505050508152505090506000600160003373ffffffffffffffffffffffffffffffffffffffff1673ffffffffffffffffffffffffffffffffffffffff1681526020019081526020016000206040518060c00160405290816000820160009054906101000a900473ffffffffffffffffffffffffffffffffffffffff1673ffffffffffffffffffffffffffffffffffffffff1673ffffffffffffffffffffffffffffffffffffffff168152602001600182018054612e1790614099565b80601f0160208091040260200160405190810160405280929190818152602001828054612e4390614099565b8015612e905780601f10612e6557610100808354040283529160200191612e90565b820191906000526020600020905b815481529060010190602001808311612e7357829003601f168201915b50505050508152602001600282018054612ea990614099565b80601f0160208091040260200160405190810160405280929190818152602001828054612ed590614099565b8015612f225780601f10612ef757610100808354040283529160200191612f22565b820191906000526020600020905b815481529060010190602001808311612f0557829003601f168201915b5050505050815260200160038201548152602001600482018054612f4590614099565b80601f0160208091040260200160405190810160405280929190818152602001828054612f7190614099565b8015612fbe5780601f10612f9357610100808354040283529160200191612fbe565b820191906000526020600020905b815481529060010190602001808311612fa157829003601f168201915b50505050508152602001600582018054612fd790614099565b80601f016020809104026020016040519081016040528092919081815260200182805461300390614099565b80156130505780601f1061302557610100808354040283529160200191613050565b820191906000526020600020905b81548152906001019060200180831161303357829003601f168201915b50505050508152505090506000600260003373ffffffffffffffffffffffffffffffffffffffff1673ffffffffffffffffffffffffffffffffffffffff1681526020019081526020016000206040518060e00160405290816000820160009054906101000a900473ffffffffffffffffffffffffffffffffffffffff1673ffffffffffffffffffffffffffffffffffffffff1673ffffffffffffffffffffffffffffffffffffffff16815260200160018201805461310d90614099565b80601f016020809104026020016040519081016040528092919081815260200182805461313990614099565b80156131865780601f1061315b57610100808354040283529160200191613186565b820191906000526020600020905b81548152906001019060200180831161316957829003601f168201915b5050505050815260200160028201805461319f90614099565b80601f01602080910402602001604051908101604052809291908181526020018280546131cb90614099565b80156132185780601f106131ed57610100808354040283529160200191613218565b820191906000526020600020905b8154815290600101906020018083116131fb57829003601f168201915b505050505081526020016003820154815260200160048201805461323b90614099565b80601f016020809104026020016040519081016040528092919081815260200182805461326790614099565b80156132b45780601f10613289576101008083540402835291602001916132b4565b820191906000526020600020905b81548152906001019060200180831161329757829003601f168201915b505050505081526020016005820180546132cd90614099565b80601f01602080910402602001604051908101604052809291908181526020018280546132f990614099565b80156133465780601f1061331b57610100808354040283529160200191613346565b820191906000526020600020905b81548152906001019060200180831161332957829003601f168201915b505050505081526020016006820160009054906101000a900473ffffffffffffffffffffffffffffffffffffffff1673ffffffffffffffffffffffffffffffffffffffff1673ffffffffffffffffffffffffffffffffffffffff16815250509050600073ffffffffffffffffffffffffffffffffffffffff16836000015173ffffffffffffffffffffffffffffffffffffffff1611156134315733836020015184606001516040518060400160405280600781526020017f50617469656e740000000000000000000000000000000000000000000000000081525096509650965096505050506135a9565b600073ffffffffffffffffffffffffffffffffffffffff16826000015173ffffffffffffffffffffffffffffffffffffffff1611156134bb5733826020015183604001516040518060400160405280600881526020017f486f73706974616c00000000000000000000000000000000000000000000000081525096509650965096505050506135a9565b600073ffffffffffffffffffffffffffffffffffffffff16816000015173ffffffffffffffffffffffffffffffffffffffff1611156135455733816020015182604001516040518060400160405280600681526020017f446f63746f72000000000000000000000000000000000000000000000000000081525096509650965096505050506135a9565b600060405180602001604052806000815250604051806020016040528060008152506040518060400160405280600781526020017f756e6b6e6f776e0000000000000000000000000000000000000000000000000081525096509650965096505050505b90919293565b8280546135bb90614099565b90600052602060002090601f0160209004810192826135dd5760008555613624565b82601f106135f657805160ff1916838001178555613624565b82800160010185558215613624579182015b82811115613623578251825591602001919060010190613608565b5b5090506136319190613635565b5090565b5b8082111561364e576000816000905550600101613636565b5090565b600081519050919050565b600082825260208201905092915050565b60005b8381101561368c578082015181840152602081019050613671565b8381111561369b576000848401525b50505050565b6000601f19601f8301169050919050565b60006136bd82613652565b6136c7818561365d565b93506136d781856020860161366e565b6136e0816136a1565b840191505092915050565b600081519050919050565b600082825260208201905092915050565b6000819050602082019050919050565b6000819050919050565b61372a81613717565b82525050565b600082825260208201905092915050565b600061374c82613652565b6137568185613730565b935061376681856020860161366e565b61376f816136a1565b840191505092915050565b600073ffffffffffffffffffffffffffffffffffffffff82169050919050565b60006137a58261377a565b9050919050565b6137b58161379a565b82525050565b600081519050919050565b600082825260208201905092915050565b6000819050602082019050919050565b60006137f383836137ac565b60208301905092915050565b6000602082019050919050565b6000613817826137bb565b61382181856137c6565b935061382c836137d7565b8060005b8381101561385d57815161384488826137e7565b975061384f836137ff565b925050600181019050613830565b5085935050505092915050565b6000610160830160008301516138836000860182613721565b506020830151848203602086015261389b8282613741565b91505060408301516138b060408601826137ac565b5060608301516138c360608601826137ac565b5060808301516138d66080860182613721565b5060a083015184820360a08601526138ee8282613741565b91505060c083015161390360c0860182613721565b5060e083015161391660e0860182613721565b5061010083015161392b610100860182613721565b50610120830151613940610120860182613721565b5061014083015184820361014086015261395a828261380c565b9150508091505092915050565b6000613973838361386a565b905092915050565b6000602082019050919050565b6000613993826136eb565b61399d81856136f6565b9350836020820285016139af85613707565b8060005b858110156139eb57848403895281516139cc8582613967565b94506139d78361397b565b925060208a019950506001810190506139b3565b50829750879550505050505092915050565b600060c0820190508181036000830152613a1781896136b2565b90508181036020830152613a2b81886136b2565b90508181036040830152613a3f81876136b2565b90508181036060830152613a5381866136b2565b90508181036080830152613a6781856136b2565b905081810360a0830152613a7b8184613988565b9050979650505050505050565b6000604051905090565b600080fd5b600080fd5b600080fd5b600080fd5b7f4e487b7100000000000000000000000000000000000000000000000000000000600052604160045260246000fd5b613ade826136a1565b810181811067ffffffffffffffff82111715613afd57613afc613aa6565b5b80604052505050565b6000613b10613a88565b9050613b1c8282613ad5565b919050565b600067ffffffffffffffff821115613b3c57613b3b613aa6565b5b613b45826136a1565b9050602081019050919050565b82818337600083830152505050565b6000613b74613b6f84613b21565b613b06565b905082815260208101848484011115613b9057613b8f613aa1565b5b613b9b848285613b52565b509392505050565b600082601f830112613bb857613bb7613a9c565b5b8135613bc8848260208601613b61565b91505092915050565b613bda81613717565b8114613be557600080fd5b50565b600081359050613bf781613bd1565b92915050565b600080600080600060a08688031215613c1957613c18613a92565b5b600086013567ffffffffffffffff811115613c3757613c36613a97565b5b613c4388828901613ba3565b955050602086013567ffffffffffffffff811115613c6457613c63613a97565b5b613c7088828901613ba3565b945050604086013567ffffffffffffffff811115613c9157613c90613a97565b5b613c9d88828901613ba3565b9350506060613cae88828901613be8565b925050608086013567ffffffffffffffff811115613ccf57613cce613a97565b5b613cdb88828901613ba3565b9150509295509295909350565b613cf18161379a565b8114613cfc57600080fd5b50565b600081359050613d0e81613ce8565b92915050565b600060208284031215613d2a57613d29613a92565b5b6000613d3884828501613cff565b91505092915050565b613d4a81613717565b82525050565b60006080820190508181036000830152613d6a81876136b2565b90508181036020830152613d7e81866136b2565b9050613d8d6040830185613d41565b8181036060830152613d9f8184613988565b905095945050505050565b600080600080600060a08688031215613dc657613dc5613a92565b5b600086013567ffffffffffffffff811115613de457613de3613a97565b5b613df088828901613ba3565b955050602086013567ffffffffffffffff811115613e1157613e10613a97565b5b613e1d88828901613ba3565b9450506040613e2e88828901613be8565b935050606086013567ffffffffffffffff811115613e4f57613e4e613a97565b5b613e5b88828901613ba3565b925050608086013567ffffffffffffffff811115613e7c57613e7b613a97565b5b613e8888828901613ba3565b9150509295509295909350565b613e9e8161379a565b82525050565b60006080820190508181036000830152613ebe81876136b2565b90508181036020830152613ed281866136b2565b9050613ee16040830185613d41565b613eee6060830184613e95565b95945050505050565b60008060008060008060c08789031215613f1457613f13613a92565b5b600087013567ffffffffffffffff811115613f3257613f31613a97565b5b613f3e89828a01613ba3565b9650506020613f4f89828a01613be8565b955050604087013567ffffffffffffffff811115613f7057613f6f613a97565b5b613f7c89828a01613ba3565b945050606087013567ffffffffffffffff811115613f9d57613f9c613a97565b5b613fa989828a01613ba3565b935050608087013567ffffffffffffffff811115613fca57613fc9613a97565b5b613fd689828a01613ba3565b92505060a087013567ffffffffffffffff811115613ff757613ff6613a97565b5b61400389828a01613ba3565b9150509295509295509295565b60006080820190506140256000830187613e95565b818103602083015261403781866136b2565b9050818103604083015261404b81856136b2565b9050818103606083015261405f81846136b2565b905095945050505050565b7f4e487b7100000000000000000000000000000000000000000000000000000000600052602260045260246000fd5b600060028204905060018216806140b157607f821691505b6020821081036140c4576140c361406a565b5b50919050565b7f446f63746f72204e6f7420466f756e6400000000000000000000000000000000600082015250565b600061410060108361365d565b915061410b826140ca565b602082019050919050565b6000602082019050818103600083015261412f816140f3565b9050919050565b600081905092915050565b600061414c82613652565b6141568185614136565b935061416681856020860161366e565b80840191505092915050565b600061417e8284614141565b915081905092915050565b50565b600061419960008361365d565b91506141a482614189565b600082019050919050565b600060208201905081810360008301526141c88161418c565b9050919050565b7f4163636f756e7420616c72656164792070726573656e74000000000000000000600082015250565b600061420560178361365d565b9150614210826141cf565b602082019050919050565b60006020820190508181036000830152614234816141f8565b9050919050565b7f486f73706974616c000000000000000000000000000000000000000000000000600082015250565b600061427160088361365d565b915061427c8261423b565b602082019050919050565b600060608201905061429c6000830185613e95565b81810360208301526142ae81846136b2565b905081810360408301526142c181614264565b90509392505050565b7f4163636573732044656e69656400000000000000000000000000000000000000600082015250565b6000614300600d8361365d565b915061430b826142ca565b602082019050919050565b6000602082019050818103600083015261432f816142f3565b9050919050565b7f50617469656e74204e6f7420466f756e64000000000000000000000000000000600082015250565b600061436c60118361365d565b915061437782614336565b602082019050919050565b6000602082019050818103600083015261439b8161435f565b9050919050565b7f446f63746f720000000000000000000000000000000000000000000000000000600082015250565b60006143d860068361365d565b91506143e3826143a2565b602082019050919050565b60006060820190506144036000830185613e95565b818103602083015261441581846136b2565b90508181036040830152614428816143cb565b90509392505050565b7f50617469656e7400000000000000000000000000000000000000000000000000600082015250565b600061446760078361365d565b915061447282614431565b602082019050919050565b60006060820190506144926000830185613e95565b81810360208301526144a481846136b2565b905081810360408301526144b78161445a565b9050939250505056fea264697066735822122020fb1eb38f5794657fbb63e0cafd7e0f5fdd2997a413d709d95c59069a94fcbc64736f6c634300080d0033",
  "immutableReferences": {},
  "source": "// SPDX-License-Identifier: MIT\npragma solidity >=0.4.25 <0.9.0;\n\ncontract HealthCare {\n    address private owner;\n\n    // enum Level {\n    //     High,\n    //     Healthy,\n    //     Low\n    // }\n\n    // enum Role {\n    //     Owner,\n    //     Admin,\n    //     Doctor,\n    //     Patient\n    // }\n\n    struct Hospital {\n        address id;\n        string name;\n        string email;\n        uint phone;\n        string description;\n        string location;\n    }\n\n    struct Doctor {\n        address id;\n        string name;\n        string email;\n        uint phone;\n        string type_name;\n        string location;\n        address hospital;\n    }\n\n    struct Patient {\n        address id;\n        string name;\n        uint phone;\n        string email;\n        string dob;\n        string bloodGroup;\n        string permanentAddress;\n        // uint score;\n        // Analysis[] history;\n    }\n\n    struct Analysis {\n        uint256 ID;\n        string testName;\n        address hospital;\n        address doctor;\n        uint256 price;\n        string date;\n        uint256 value;\n        uint256 min;\n        uint256 max;\n        uint256 weight;\n        address[] signatures;\n    }\n\n    mapping(address => Hospital) private hospitals;\n    mapping(address => Doctor) private doctors;\n    mapping(address => Patient) private patients;\n    mapping(address => Analysis[]) reports;\n\n    constructor() {\n        owner = msg.sender;\n    }\n\n    modifier checkDoctor() {\n        Doctor memory d = doctors[msg.sender];\n        require(d.id > address(0x0), \"Access Denied\");\n        _;\n    }\n\n    modifier checkPatient() {\n        Patient storage p = patients[msg.sender];\n        require(p.id > address(0x0), \"Access Denied\");\n        _;\n    }\n\n    modifier checkAdmin() {\n        Hospital storage h = hospitals[msg.sender];\n        require(h.id > address(0x0), \"Access Denied\");\n        _;\n    }\n\n    modifier checkDoctorOrHospital() {\n        Hospital memory h = hospitals[msg.sender];\n        Doctor memory d = doctors[msg.sender];\n        require(h.id > address(0x0) || d.id > address(0x0), \"Access Denied\");\n        _;\n    }\n\n    event Signup(address add, string name, string role);\n\n    function addDoctor(\n        string memory _name,\n        string memory email,\n        uint phone,\n        string memory _type_name,\n        string memory _location\n    ) public {\n        Doctor memory d = doctors[msg.sender];\n        require(keccak256(abi.encodePacked(_name)) != keccak256(\"\"), \"\");\n        require(!(d.id > address(0x0)), \"Account already present\");\n        doctors[msg.sender] = Doctor({\n            id: msg.sender,\n            name: _name,\n            email: email,\n            phone: phone,\n            type_name: _type_name,\n            location: _location,\n            hospital: address(0x0)\n        });\n        emit Signup(msg.sender, _name, \"Doctor\");\n    }\n\n    function addPatient(\n        string memory _name,\n        uint _phone,\n        string memory _email,\n        string memory _dob,\n        string memory _bloodGroup,\n        string memory _permanentAddress\n    ) public {\n        Patient storage p = patients[msg.sender];\n        require(keccak256(abi.encodePacked(_name)) != keccak256(\"\"), \"\");\n        require(!(p.id > address(0x0)), \"Account already present\");\n        patients[msg.sender] = Patient(\n            msg.sender,\n            _name,\n            _phone,\n            _email,\n            _dob,\n            _bloodGroup,\n            _permanentAddress\n        );\n        emit Signup(msg.sender, _name, \"Patient\");\n    }\n\n    function addHospital(\n        string memory name,\n        string memory descr,\n        string memory location,\n        uint _phone,\n        string memory _email\n    ) public {\n        Hospital memory h = hospitals[msg.sender];\n        require(keccak256(abi.encodePacked(name)) != keccak256(\"\"), \"\");\n        require(!(h.id > address(0x0)), \"Account already present\");\n        hospitals[msg.sender] = Hospital(\n            msg.sender,\n            name,\n            _email,\n            _phone,\n            descr,\n            location\n        );\n        emit Signup(msg.sender, name, \"Hospital\");\n    }\n\n    function Login()\n        public\n        view\n        returns (\n            address id,\n            string memory name,\n            string memory email,\n            string memory role\n        )\n    {\n        Patient memory p = patients[msg.sender];\n        Hospital memory h = hospitals[msg.sender];\n        Doctor memory d = doctors[msg.sender];\n        if (p.id > address(0x0)) {\n            return (msg.sender, p.name, p.email, \"Patient\");\n        } else if (h.id > address(0x0)) {\n            return (msg.sender, h.name, h.email, \"Hospital\");\n        } else if (d.id > (address(0x0))) {\n            return (msg.sender, d.name, d.email, \"Doctor\");\n        }\n        return (address(0x0), \"\", \"\", \"unknown\");\n    }\n\n    function getPatientInfo(\n        address pAddress\n    )\n        public\n        view\n        checkDoctorOrHospital\n        returns (\n            string memory name,\n            string memory email,\n            uint phone,\n            Analysis[] memory\n        )\n    {\n        Patient memory p = patients[pAddress];\n        require((p.id > address(0x0)), \"Patient Not Found\");\n        return (p.name, p.email, p.phone, reports[msg.sender]);\n    }\n\n    function getDoctorInfo(\n        address dAddress\n    )\n        public\n        view\n        returns (\n            string memory name,\n            string memory email,\n            uint phone,\n            address hospital\n        )\n    {\n        Doctor memory d = doctors[dAddress];\n        require((d.id > address(0x0)), \"Doctor Not Found\");\n        return (d.name, d.email, d.phone, d.hospital);\n    }\n\n    function getPatientProfile()\n        public\n        view\n        returns (\n            string memory name,\n            string memory email,\n            string memory dob,\n            string memory bloodGroup,\n            string memory permanentAddress,\n            Analysis[] memory\n        )\n    {\n        Patient memory p = patients[msg.sender];\n        require((p.id > address(0x0)), \"Doctor Not Found\");\n        return (\n            p.name,\n            p.email,\n            p.dob,\n            p.bloodGroup,\n            p.permanentAddress,\n            reports[msg.sender]\n        );\n    }\n}\n\n// contract HealthCare {\n//     address private owner;\n\n//     struct Patient {\n//         string name;\n//         uint8 age;\n//         address id;\n//         address[] doctor_list;\n//     }\n\n//     struct Doctor {\n//         string name;\n//         address id;\n//         address[] patient_list;\n//     }\n\n//     mapping(address => Doctor) private doctors;\n//     mapping(address => Patient) private patients;\n//     mapping(address => mapping(address => uint256)) private doctorToPatient; // doctors to patient list\n//     mapping(address => mapping(address => uint256)) private patientToDoctor;\n\n//     //   modifier checkFileAccess(string memory role, address id, bytes32 fileHashId, address pat) {\n//     //     uint pos;\n//     //     if(keccak256(abi.encodePacked(role)) == keccak256(\"doctor\")) {\n//     //         require(patientToDoctor[pat][id] > 0);\n//     //         pos = patientToFile[pat][fileHashId];\n//     //         require(pos > 0);\n//     //     }\n//     //     else if(keccak256(abi.encodePacked(role)) == keccak256(\"patient\")) {\n//     //         pos = patientToFile[id][fileHashId];\n//     //         require(pos > 0);\n//     //     }\n//     //     _;\n//     //   }\n\n//     //   modifier checkFile(bytes32 fileHashId) {\n//     //     bytes memory tempString = bytes(hashToFile[fileHashId].file_name);\n//     //     require(tempString.length > 0);//check if file exist\n//     //     _;\n//     //   }\n\n//     function signupPatient(string memory _name, uint8 _age) public {\n//         Patient memory p = patients[msg.sender];\n//         require(keccak256(abi.encodePacked(_name)) != keccak256(\"\"));\n//         require((_age > 0) && (_age < 100));\n//         require(!(p.id > address(0x0)));\n\n//         patients[msg.sender] = Patient({\n//             name: _name,\n//             age: _age,\n//             id: msg.sender,\n//             doctor_list: new address[](0)\n//         });\n//     }\n\n//     function signupDoctor(string memory _name) public {\n//         Doctor memory d = doctors[msg.sender];\n//         require(keccak256(abi.encodePacked(_name)) != keccak256(\"\"));\n//         require(!(d.id > address(0x0)));\n\n//         doctors[msg.sender] = Doctor({\n//             name: _name,\n//             id: msg.sender,\n//             patient_list: new address[](0)\n//         });\n//     }\n\n//     function grantAccessToDoctor(\n//         address doctor_id\n//     ) public checkPatient(msg.sender) checkDoctor(doctor_id) {\n//         Patient storage p = patients[msg.sender];\n//         Doctor storage d = doctors[doctor_id];\n//         require(patientToDoctor[msg.sender][doctor_id] < 1); // this means doctor already been access\n\n//         p.doctor_list.push(doctor_id); // new length of array\n//         // gpos = pos;\n//         uint pos = p.doctor_list.length;\n//         patientToDoctor[msg.sender][doctor_id] = pos;\n//         d.patient_list.push(msg.sender);\n//     }\n\n//     //   function addFile(string memory _file_name, string memory _file_type, bytes32 _fileHash, string memory _file_secret) public checkPatient(msg.sender) {\n//     //       patient storage p = patients[msg.sender];\n\n//     //       require(patientToFile[msg.sender][_fileHash] < 1);\n\n//     //       hashToFile[_fileHash] = filesInfo({file_name:_file_name, file_type:_file_type,file_secret:_file_secret});\n//     //       uint pos = p.files.push(_fileHash);\n//     //       patientToFile[msg.sender][_fileHash] = pos;\n//     //   }\n\n//     function getPatientProfile()\n//         public\n//         view\n//         checkPatient(msg.sender)\n//         returns (string memory, uint8, address[] memory)\n//     {\n//         Patient memory p = patients[msg.sender];\n//         return (p.name, p.age, p.doctor_list);\n//     }\n\n//     function getDoctorProfile()\n//         public\n//         view\n//         checkDoctor(msg.sender)\n//         returns (string memory, address[] memory)\n//     {\n//         Doctor memory d = doctors[msg.sender];\n//         return (d.name, d.patient_list);\n//     }\n\n//     //   function checkProfile(address _user) public view onlyOwner returns(string memory, string memory){\n//     //       patient memory p = patients[_user];\n//     //       doctor memory d = doctors[_user];\n\n//     //       if(p.id > address(0x0))\n//     //           return (p.name, 'patient');\n//     //       else if(d.id > address(0x0))\n//     //           return (d.name, 'doctor');\n//     //       else\n//     //           return ('', '');\n//     //   }\n\n//     function getPatientInfoForDoctor(\n//         address pat\n//     )\n//         public\n//         view\n//         checkPatient(pat)\n//         checkDoctor(msg.sender)\n//         returns (string memory, uint8, address)\n//     {\n//         Patient memory p = patients[pat];\n\n//         require(patientToDoctor[pat][msg.sender] > 0);\n\n//         return (p.name, p.age, p.id);\n//     }\n\n//     //   function getFileInfo(bytes32 fileHashId) private view checkFile(fileHashId) returns(filesInfo memory) {\n//     //       return hashToFile[fileHashId];\n//     //   }\n\n//     //   function getFileSecret(bytes32 fileHashId, string memory role, address id, address pat) public view\n//     //   checkFile(fileHashId) checkFileAccess(role, id, fileHashId, pat)\n//     //   returns(string memory) {\n//     //       filesInfo memory f = getFileInfo(fileHashId);\n//     //       return (f.file_secret);\n//     //   }\n\n//     //   function getFileInfoDoctor(address doc, address pat, bytes32 fileHashId) public view\n//     //   onlyOwner checkPatient(pat) checkDoctor(doc) checkFileAccess(\"doctor\", doc, fileHashId, pat)\n//     //   returns(string memory, string memory) {\n//     //       filesInfo memory f = getFileInfo(fileHashId);\n//     //       return (f.file_name, f.file_type);\n//     //   }\n\n//     //   function getFileInfoPatient(address pat, bytes32 fileHashId) public view\n//     //   onlyOwner checkPatient(pat) checkFileAccess(\"patient\", pat, fileHashId, pat) returns(string memory, string memory) {\n//     //       filesInfo memory f = getFileInfo(fileHashId);\n//     //       return (f.file_name, f.file_type);\n//     //   }\n// }\n",
  "sourcePath": "/home/rahul/Desktop/Programs/Blockchain/ProjectFinal/HealthCare-Project/src/contracts/HealthCare.sol",
  "compiler": {
    "name": "solc",
    "version": "0.8.13+commit.abaa5c0e.Emscripten.clang"
  },
  "schemaVersion": "3.4.10",
  "updatedAt": "2022-12-06T13:19:06.869Z",
  "networkType": "ethereum",
  "devdoc": {
    "kind": "dev",
    "methods": {},
    "version": 1
  },
  "userdoc": {
    "kind": "user",
    "methods": {},
    "version": 1
  }
}