{
  "contractName": "HealthCare",
  "abi": [
    {
      "inputs": [],
      "stateMutability": "nonpayable",
      "type": "constructor"
    },
    {
      "anonymous": false,
      "inputs": [
        {
          "indexed": false,
          "internalType": "address",
          "name": "add",
          "type": "address"
        },
        {
          "indexed": false,
          "internalType": "string",
          "name": "name",
          "type": "string"
        },
        {
          "indexed": false,
          "internalType": "string",
          "name": "role",
          "type": "string"
        }
      ],
      "name": "Signup",
      "type": "event"
    },
    {
      "inputs": [
        {
          "internalType": "string",
          "name": "_name",
          "type": "string"
        },
        {
          "internalType": "string",
          "name": "email",
          "type": "string"
        },
        {
          "internalType": "uint256",
          "name": "phone",
          "type": "uint256"
        },
        {
          "internalType": "string",
          "name": "_type_name",
          "type": "string"
        },
        {
          "internalType": "string",
          "name": "_location",
          "type": "string"
        }
      ],
      "name": "addDoctor",
      "outputs": [],
      "stateMutability": "nonpayable",
      "type": "function"
    },
    {
      "inputs": [
        {
          "internalType": "string",
          "name": "_name",
          "type": "string"
        },
        {
          "internalType": "uint256",
          "name": "_phone",
          "type": "uint256"
        },
        {
          "internalType": "string",
          "name": "_email",
          "type": "string"
        }
      ],
      "name": "addPatient",
      "outputs": [],
      "stateMutability": "nonpayable",
      "type": "function"
    },
    {
      "inputs": [
        {
          "internalType": "string",
          "name": "name",
          "type": "string"
        },
        {
          "internalType": "string",
          "name": "descr",
          "type": "string"
        },
        {
          "internalType": "string",
          "name": "location",
          "type": "string"
        },
        {
          "internalType": "uint256",
          "name": "_phone",
          "type": "uint256"
        },
        {
          "internalType": "string",
          "name": "_email",
          "type": "string"
        }
      ],
      "name": "addHospital",
      "outputs": [],
      "stateMutability": "nonpayable",
      "type": "function"
    },
    {
      "inputs": [],
      "name": "Login",
      "outputs": [
        {
          "internalType": "address",
          "name": "id",
          "type": "address"
        },
        {
          "internalType": "string",
          "name": "name",
          "type": "string"
        },
        {
          "internalType": "string",
          "name": "email",
          "type": "string"
        }
      ],
      "stateMutability": "view",
      "type": "function",
      "constant": true
    },
    {
      "inputs": [
        {
          "internalType": "address",
          "name": "pAddress",
          "type": "address"
        }
      ],
      "name": "getPatientInfo",
      "outputs": [
        {
          "internalType": "string",
          "name": "name",
          "type": "string"
        },
        {
          "internalType": "string",
          "name": "email",
          "type": "string"
        },
        {
          "internalType": "uint256",
          "name": "phone",
          "type": "uint256"
        }
      ],
      "stateMutability": "view",
      "type": "function",
      "constant": true
    },
    {
      "inputs": [
        {
          "internalType": "address",
          "name": "dAddress",
          "type": "address"
        }
      ],
      "name": "getDoctorProfile",
      "outputs": [
        {
          "internalType": "string",
          "name": "name",
          "type": "string"
        },
        {
          "internalType": "string",
          "name": "email",
          "type": "string"
        },
        {
          "internalType": "uint256",
          "name": "phone",
          "type": "uint256"
        },
        {
          "internalType": "address",
          "name": "hospital",
          "type": "address"
        }
      ],
      "stateMutability": "view",
      "type": "function",
      "constant": true
    }
  ],
  "bytecode": "0x608060405234801561001057600080fd5b50336000806101000a81548173ffffffffffffffffffffffffffffffffffffffff021916908373ffffffffffffffffffffffffffffffffffffffff160217905550613145806100606000396000f3fe608060405234801561001057600080fd5b50600436106100625760003560e01c80631d79e363146100675780634b4261781461008357806359f8d36c146100b55780635cbcd8eb146100d1578063d65da44a14610104578063f00ac1da14610120575b600080fd5b610081600480360381019061007c919061284a565b610140565b005b61009d60048036038101906100989190612993565b6106bd565b6040516100ac93929190612a57565b60405180910390f35b6100cf60048036038101906100ca9190612a9c565b611015565b005b6100eb60048036038101906100e69190612993565b61164c565b6040516100fb9493929190612b96565b60405180910390f35b61011e60048036038101906101199190612be9565b611a35565b005b610128611cd7565b60405161013793929190612c74565b60405180910390f35b6000600160003373ffffffffffffffffffffffffffffffffffffffff1673ffffffffffffffffffffffffffffffffffffffff1681526020019081526020016000206040518060c00160405290816000820160009054906101000a900473ffffffffffffffffffffffffffffffffffffffff1673ffffffffffffffffffffffffffffffffffffffff1673ffffffffffffffffffffffffffffffffffffffff1681526020016001820180546101f290612ce8565b80601f016020809104026020016040519081016040528092919081815260200182805461021e90612ce8565b801561026b5780601f106102405761010080835404028352916020019161026b565b820191906000526020600020905b81548152906001019060200180831161024e57829003601f168201915b5050505050815260200160028201805461028490612ce8565b80601f01602080910402602001604051908101604052809291908181526020018280546102b090612ce8565b80156102fd5780601f106102d2576101008083540402835291602001916102fd565b820191906000526020600020905b8154815290600101906020018083116102e057829003601f168201915b505050505081526020016003820154815260200160048201805461032090612ce8565b80601f016020809104026020016040519081016040528092919081815260200182805461034c90612ce8565b80156103995780601f1061036e57610100808354040283529160200191610399565b820191906000526020600020905b81548152906001019060200180831161037c57829003601f168201915b505050505081526020016005820180546103b290612ce8565b80601f01602080910402602001604051908101604052809291908181526020018280546103de90612ce8565b801561042b5780601f106104005761010080835404028352916020019161042b565b820191906000526020600020905b81548152906001019060200180831161040e57829003601f168201915b50505050508152505090507fc5d2460186f7233c927e7db2dcc703c0e500b653ca82273b7bfad8045d85a470866040516020016104689190612d55565b60405160208183030381529060405280519060200120036104be576040517f08c379a00000000000000000000000000000000000000000000000000000000081526004016104b590612d92565b60405180910390fd5b600073ffffffffffffffffffffffffffffffffffffffff16816000015173ffffffffffffffffffffffffffffffffffffffff161115610532576040517f08c379a000000000000000000000000000000000000000000000000000000000815260040161052990612dfe565b60405180910390fd5b6040518060c001604052803373ffffffffffffffffffffffffffffffffffffffff16815260200187815260200183815260200184815260200186815260200185815250600160003373ffffffffffffffffffffffffffffffffffffffff1673ffffffffffffffffffffffffffffffffffffffff16815260200190815260200160002060008201518160000160006101000a81548173ffffffffffffffffffffffffffffffffffffffff021916908373ffffffffffffffffffffffffffffffffffffffff1602179055506020820151816001019080519060200190610617929190612617565b506040820151816002019080519060200190610634929190612617565b5060608201518160030155608082015181600401908051906020019061065b929190612617565b5060a0820151816005019080519060200190610678929190612617565b509050507f807cc07179f4a5c23823cab6e41e49bfd0d66ab9891a7669cd7a3a014304db1e33876040516106ad929190612e6a565b60405180910390a1505050505050565b606080600080600160003373ffffffffffffffffffffffffffffffffffffffff1673ffffffffffffffffffffffffffffffffffffffff1681526020019081526020016000206040518060c00160405290816000820160009054906101000a900473ffffffffffffffffffffffffffffffffffffffff1673ffffffffffffffffffffffffffffffffffffffff1673ffffffffffffffffffffffffffffffffffffffff16815260200160018201805461077390612ce8565b80601f016020809104026020016040519081016040528092919081815260200182805461079f90612ce8565b80156107ec5780601f106107c1576101008083540402835291602001916107ec565b820191906000526020600020905b8154815290600101906020018083116107cf57829003601f168201915b5050505050815260200160028201805461080590612ce8565b80601f016020809104026020016040519081016040528092919081815260200182805461083190612ce8565b801561087e5780601f106108535761010080835404028352916020019161087e565b820191906000526020600020905b81548152906001019060200180831161086157829003601f168201915b50505050508152602001600382015481526020016004820180546108a190612ce8565b80601f01602080910402602001604051908101604052809291908181526020018280546108cd90612ce8565b801561091a5780601f106108ef5761010080835404028352916020019161091a565b820191906000526020600020905b8154815290600101906020018083116108fd57829003601f168201915b5050505050815260200160058201805461093390612ce8565b80601f016020809104026020016040519081016040528092919081815260200182805461095f90612ce8565b80156109ac5780601f10610981576101008083540402835291602001916109ac565b820191906000526020600020905b81548152906001019060200180831161098f57829003601f168201915b50505050508152505090506000600260003373ffffffffffffffffffffffffffffffffffffffff1673ffffffffffffffffffffffffffffffffffffffff1681526020019081526020016000206040518060e00160405290816000820160009054906101000a900473ffffffffffffffffffffffffffffffffffffffff1673ffffffffffffffffffffffffffffffffffffffff1673ffffffffffffffffffffffffffffffffffffffff168152602001600182018054610a6990612ce8565b80601f0160208091040260200160405190810160405280929190818152602001828054610a9590612ce8565b8015610ae25780601f10610ab757610100808354040283529160200191610ae2565b820191906000526020600020905b815481529060010190602001808311610ac557829003601f168201915b50505050508152602001600282018054610afb90612ce8565b80601f0160208091040260200160405190810160405280929190818152602001828054610b2790612ce8565b8015610b745780601f10610b4957610100808354040283529160200191610b74565b820191906000526020600020905b815481529060010190602001808311610b5757829003601f168201915b5050505050815260200160038201548152602001600482018054610b9790612ce8565b80601f0160208091040260200160405190810160405280929190818152602001828054610bc390612ce8565b8015610c105780601f10610be557610100808354040283529160200191610c10565b820191906000526020600020905b815481529060010190602001808311610bf357829003601f168201915b50505050508152602001600582018054610c2990612ce8565b80601f0160208091040260200160405190810160405280929190818152602001828054610c5590612ce8565b8015610ca25780601f10610c7757610100808354040283529160200191610ca2565b820191906000526020600020905b815481529060010190602001808311610c8557829003601f168201915b505050505081526020016006820160009054906101000a900473ffffffffffffffffffffffffffffffffffffffff1673ffffffffffffffffffffffffffffffffffffffff1673ffffffffffffffffffffffffffffffffffffffff16815250509050600073ffffffffffffffffffffffffffffffffffffffff16826000015173ffffffffffffffffffffffffffffffffffffffff161180610d725750600073ffffffffffffffffffffffffffffffffffffffff16816000015173ffffffffffffffffffffffffffffffffffffffff16115b610db1576040517f08c379a0000000000000000000000000000000000000000000000000000000008152600401610da890612ef9565b60405180910390fd5b6000600360008873ffffffffffffffffffffffffffffffffffffffff1673ffffffffffffffffffffffffffffffffffffffff1681526020019081526020016000206040518060800160405290816000820160009054906101000a900473ffffffffffffffffffffffffffffffffffffffff1673ffffffffffffffffffffffffffffffffffffffff1673ffffffffffffffffffffffffffffffffffffffff168152602001600182018054610e6390612ce8565b80601f0160208091040260200160405190810160405280929190818152602001828054610e8f90612ce8565b8015610edc5780601f10610eb157610100808354040283529160200191610edc565b820191906000526020600020905b815481529060010190602001808311610ebf57829003601f168201915b5050505050815260200160028201548152602001600382018054610eff90612ce8565b80601f0160208091040260200160405190810160405280929190818152602001828054610f2b90612ce8565b8015610f785780601f10610f4d57610100808354040283529160200191610f78565b820191906000526020600020905b815481529060010190602001808311610f5b57829003601f168201915b5050505050815250509050600073ffffffffffffffffffffffffffffffffffffffff16816000015173ffffffffffffffffffffffffffffffffffffffff1611610ff6576040517f08c379a0000000000000000000000000000000000000000000000000000000008152600401610fed90612f65565b60405180910390fd5b8060200151816060015182604001519550955095505050509193909250565b6000600260003373ffffffffffffffffffffffffffffffffffffffff1673ffffffffffffffffffffffffffffffffffffffff1681526020019081526020016000206040518060e00160405290816000820160009054906101000a900473ffffffffffffffffffffffffffffffffffffffff1673ffffffffffffffffffffffffffffffffffffffff1673ffffffffffffffffffffffffffffffffffffffff1681526020016001820180546110c790612ce8565b80601f01602080910402602001604051908101604052809291908181526020018280546110f390612ce8565b80156111405780601f1061111557610100808354040283529160200191611140565b820191906000526020600020905b81548152906001019060200180831161112357829003601f168201915b5050505050815260200160028201805461115990612ce8565b80601f016020809104026020016040519081016040528092919081815260200182805461118590612ce8565b80156111d25780601f106111a7576101008083540402835291602001916111d2565b820191906000526020600020905b8154815290600101906020018083116111b557829003601f168201915b50505050508152602001600382015481526020016004820180546111f590612ce8565b80601f016020809104026020016040519081016040528092919081815260200182805461122190612ce8565b801561126e5780601f106112435761010080835404028352916020019161126e565b820191906000526020600020905b81548152906001019060200180831161125157829003601f168201915b5050505050815260200160058201805461128790612ce8565b80601f01602080910402602001604051908101604052809291908181526020018280546112b390612ce8565b80156113005780601f106112d557610100808354040283529160200191611300565b820191906000526020600020905b8154815290600101906020018083116112e357829003601f168201915b505050505081526020016006820160009054906101000a900473ffffffffffffffffffffffffffffffffffffffff1673ffffffffffffffffffffffffffffffffffffffff1673ffffffffffffffffffffffffffffffffffffffff168152505090507fc5d2460186f7233c927e7db2dcc703c0e500b653ca82273b7bfad8045d85a470866040516020016113939190612d55565b60405160208183030381529060405280519060200120036113e9576040517f08c379a00000000000000000000000000000000000000000000000000000000081526004016113e090612d92565b60405180910390fd5b600073ffffffffffffffffffffffffffffffffffffffff16816000015173ffffffffffffffffffffffffffffffffffffffff16111561145d576040517f08c379a000000000000000000000000000000000000000000000000000000000815260040161145490612dfe565b60405180910390fd5b6040518060e001604052803373ffffffffffffffffffffffffffffffffffffffff168152602001878152602001868152602001858152602001848152602001838152602001600073ffffffffffffffffffffffffffffffffffffffff16815250600260003373ffffffffffffffffffffffffffffffffffffffff1673ffffffffffffffffffffffffffffffffffffffff16815260200190815260200160002060008201518160000160006101000a81548173ffffffffffffffffffffffffffffffffffffffff021916908373ffffffffffffffffffffffffffffffffffffffff160217905550602082015181600101908051906020019061155f929190612617565b50604082015181600201908051906020019061157c929190612617565b506060820151816003015560808201518160040190805190602001906115a3929190612617565b5060a08201518160050190805190602001906115c0929190612617565b5060c08201518160060160006101000a81548173ffffffffffffffffffffffffffffffffffffffff021916908373ffffffffffffffffffffffffffffffffffffffff1602179055509050507f807cc07179f4a5c23823cab6e41e49bfd0d66ab9891a7669cd7a3a014304db1e338760405161163c929190612fd1565b60405180910390a1505050505050565b6060806000806000600260008773ffffffffffffffffffffffffffffffffffffffff1673ffffffffffffffffffffffffffffffffffffffff1681526020019081526020016000206040518060e00160405290816000820160009054906101000a900473ffffffffffffffffffffffffffffffffffffffff1673ffffffffffffffffffffffffffffffffffffffff1673ffffffffffffffffffffffffffffffffffffffff16815260200160018201805461170490612ce8565b80601f016020809104026020016040519081016040528092919081815260200182805461173090612ce8565b801561177d5780601f106117525761010080835404028352916020019161177d565b820191906000526020600020905b81548152906001019060200180831161176057829003601f168201915b5050505050815260200160028201805461179690612ce8565b80601f01602080910402602001604051908101604052809291908181526020018280546117c290612ce8565b801561180f5780601f106117e45761010080835404028352916020019161180f565b820191906000526020600020905b8154815290600101906020018083116117f257829003601f168201915b505050505081526020016003820154815260200160048201805461183290612ce8565b80601f016020809104026020016040519081016040528092919081815260200182805461185e90612ce8565b80156118ab5780601f10611880576101008083540402835291602001916118ab565b820191906000526020600020905b81548152906001019060200180831161188e57829003601f168201915b505050505081526020016005820180546118c490612ce8565b80601f01602080910402602001604051908101604052809291908181526020018280546118f090612ce8565b801561193d5780601f106119125761010080835404028352916020019161193d565b820191906000526020600020905b81548152906001019060200180831161192057829003601f168201915b505050505081526020016006820160009054906101000a900473ffffffffffffffffffffffffffffffffffffffff1673ffffffffffffffffffffffffffffffffffffffff1673ffffffffffffffffffffffffffffffffffffffff16815250509050600073ffffffffffffffffffffffffffffffffffffffff16816000015173ffffffffffffffffffffffffffffffffffffffff1611611a11576040517f08c379a0000000000000000000000000000000000000000000000000000000008152600401611a0890613060565b60405180910390fd5b8060200151816040015182606001518360c001519450945094509450509193509193565b6000600360003373ffffffffffffffffffffffffffffffffffffffff1673ffffffffffffffffffffffffffffffffffffffff16815260200190815260200160002090507fc5d2460186f7233c927e7db2dcc703c0e500b653ca82273b7bfad8045d85a47084604051602001611aaa9190612d55565b6040516020818303038152906040528051906020012003611b00576040517f08c379a0000000000000000000000000000000000000000000000000000000008152600401611af790612d92565b60405180910390fd5b600073ffffffffffffffffffffffffffffffffffffffff168160000160009054906101000a900473ffffffffffffffffffffffffffffffffffffffff1673ffffffffffffffffffffffffffffffffffffffff161115611b94576040517f08c379a0000000000000000000000000000000000000000000000000000000008152600401611b8b90612dfe565b60405180910390fd5b60405180608001604052803373ffffffffffffffffffffffffffffffffffffffff16815260200185815260200184815260200183815250600360003373ffffffffffffffffffffffffffffffffffffffff1673ffffffffffffffffffffffffffffffffffffffff16815260200190815260200160002060008201518160000160006101000a81548173ffffffffffffffffffffffffffffffffffffffff021916908373ffffffffffffffffffffffffffffffffffffffff1602179055506020820151816001019080519060200190611c6d929190612617565b50604082015181600201556060820151816003019080519060200190611c94929190612617565b509050507f807cc07179f4a5c23823cab6e41e49bfd0d66ab9891a7669cd7a3a014304db1e3385604051611cc99291906130cc565b60405180910390a150505050565b60006060806000600360003373ffffffffffffffffffffffffffffffffffffffff1673ffffffffffffffffffffffffffffffffffffffff1681526020019081526020016000206040518060800160405290816000820160009054906101000a900473ffffffffffffffffffffffffffffffffffffffff1673ffffffffffffffffffffffffffffffffffffffff1673ffffffffffffffffffffffffffffffffffffffff168152602001600182018054611d8e90612ce8565b80601f0160208091040260200160405190810160405280929190818152602001828054611dba90612ce8565b8015611e075780601f10611ddc57610100808354040283529160200191611e07565b820191906000526020600020905b815481529060010190602001808311611dea57829003601f168201915b5050505050815260200160028201548152602001600382018054611e2a90612ce8565b80601f0160208091040260200160405190810160405280929190818152602001828054611e5690612ce8565b8015611ea35780601f10611e7857610100808354040283529160200191611ea3565b820191906000526020600020905b815481529060010190602001808311611e8657829003601f168201915b50505050508152505090506000600160003373ffffffffffffffffffffffffffffffffffffffff1673ffffffffffffffffffffffffffffffffffffffff1681526020019081526020016000206040518060c00160405290816000820160009054906101000a900473ffffffffffffffffffffffffffffffffffffffff1673ffffffffffffffffffffffffffffffffffffffff1673ffffffffffffffffffffffffffffffffffffffff168152602001600182018054611f6090612ce8565b80601f0160208091040260200160405190810160405280929190818152602001828054611f8c90612ce8565b8015611fd95780601f10611fae57610100808354040283529160200191611fd9565b820191906000526020600020905b815481529060010190602001808311611fbc57829003601f168201915b50505050508152602001600282018054611ff290612ce8565b80601f016020809104026020016040519081016040528092919081815260200182805461201e90612ce8565b801561206b5780601f106120405761010080835404028352916020019161206b565b820191906000526020600020905b81548152906001019060200180831161204e57829003601f168201915b505050505081526020016003820154815260200160048201805461208e90612ce8565b80601f01602080910402602001604051908101604052809291908181526020018280546120ba90612ce8565b80156121075780601f106120dc57610100808354040283529160200191612107565b820191906000526020600020905b8154815290600101906020018083116120ea57829003601f168201915b5050505050815260200160058201805461212090612ce8565b80601f016020809104026020016040519081016040528092919081815260200182805461214c90612ce8565b80156121995780601f1061216e57610100808354040283529160200191612199565b820191906000526020600020905b81548152906001019060200180831161217c57829003601f168201915b50505050508152505090506000600260003373ffffffffffffffffffffffffffffffffffffffff1673ffffffffffffffffffffffffffffffffffffffff1681526020019081526020016000206040518060e00160405290816000820160009054906101000a900473ffffffffffffffffffffffffffffffffffffffff1673ffffffffffffffffffffffffffffffffffffffff1673ffffffffffffffffffffffffffffffffffffffff16815260200160018201805461225690612ce8565b80601f016020809104026020016040519081016040528092919081815260200182805461228290612ce8565b80156122cf5780601f106122a4576101008083540402835291602001916122cf565b820191906000526020600020905b8154815290600101906020018083116122b257829003601f168201915b505050505081526020016002820180546122e890612ce8565b80601f016020809104026020016040519081016040528092919081815260200182805461231490612ce8565b80156123615780601f1061233657610100808354040283529160200191612361565b820191906000526020600020905b81548152906001019060200180831161234457829003601f168201915b505050505081526020016003820154815260200160048201805461238490612ce8565b80601f01602080910402602001604051908101604052809291908181526020018280546123b090612ce8565b80156123fd5780601f106123d2576101008083540402835291602001916123fd565b820191906000526020600020905b8154815290600101906020018083116123e057829003601f168201915b5050505050815260200160058201805461241690612ce8565b80601f016020809104026020016040519081016040528092919081815260200182805461244290612ce8565b801561248f5780601f106124645761010080835404028352916020019161248f565b820191906000526020600020905b81548152906001019060200180831161247257829003601f168201915b505050505081526020016006820160009054906101000a900473ffffffffffffffffffffffffffffffffffffffff1673ffffffffffffffffffffffffffffffffffffffff1673ffffffffffffffffffffffffffffffffffffffff16815250509050600073ffffffffffffffffffffffffffffffffffffffff16836000015173ffffffffffffffffffffffffffffffffffffffff161115612542573383602001518460600151955095509550505050612612565b600073ffffffffffffffffffffffffffffffffffffffff16826000015173ffffffffffffffffffffffffffffffffffffffff161115612594573382602001518360400151955095509550505050612612565b600073ffffffffffffffffffffffffffffffffffffffff16816000015173ffffffffffffffffffffffffffffffffffffffff1611156125e6573381602001518260400151955095509550505050612612565b600060405180602001604052806000815250604051806020016040528060008152509550955095505050505b909192565b82805461262390612ce8565b90600052602060002090601f016020900481019282612645576000855561268c565b82601f1061265e57805160ff191683800117855561268c565b8280016001018555821561268c579182015b8281111561268b578251825591602001919060010190612670565b5b509050612699919061269d565b5090565b5b808211156126b657600081600090555060010161269e565b5090565b6000604051905090565b600080fd5b600080fd5b600080fd5b600080fd5b6000601f19601f8301169050919050565b7f4e487b7100000000000000000000000000000000000000000000000000000000600052604160045260246000fd5b612721826126d8565b810181811067ffffffffffffffff821117156127405761273f6126e9565b5b80604052505050565b60006127536126ba565b905061275f8282612718565b919050565b600067ffffffffffffffff82111561277f5761277e6126e9565b5b612788826126d8565b9050602081019050919050565b82818337600083830152505050565b60006127b76127b284612764565b612749565b9050828152602081018484840111156127d3576127d26126d3565b5b6127de848285612795565b509392505050565b600082601f8301126127fb576127fa6126ce565b5b813561280b8482602086016127a4565b91505092915050565b6000819050919050565b61282781612814565b811461283257600080fd5b50565b6000813590506128448161281e565b92915050565b600080600080600060a08688031215612866576128656126c4565b5b600086013567ffffffffffffffff811115612884576128836126c9565b5b612890888289016127e6565b955050602086013567ffffffffffffffff8111156128b1576128b06126c9565b5b6128bd888289016127e6565b945050604086013567ffffffffffffffff8111156128de576128dd6126c9565b5b6128ea888289016127e6565b93505060606128fb88828901612835565b925050608086013567ffffffffffffffff81111561291c5761291b6126c9565b5b612928888289016127e6565b9150509295509295909350565b600073ffffffffffffffffffffffffffffffffffffffff82169050919050565b600061296082612935565b9050919050565b61297081612955565b811461297b57600080fd5b50565b60008135905061298d81612967565b92915050565b6000602082840312156129a9576129a86126c4565b5b60006129b78482850161297e565b91505092915050565b600081519050919050565b600082825260208201905092915050565b60005b838110156129fa5780820151818401526020810190506129df565b83811115612a09576000848401525b50505050565b6000612a1a826129c0565b612a2481856129cb565b9350612a348185602086016129dc565b612a3d816126d8565b840191505092915050565b612a5181612814565b82525050565b60006060820190508181036000830152612a718186612a0f565b90508181036020830152612a858185612a0f565b9050612a946040830184612a48565b949350505050565b600080600080600060a08688031215612ab857612ab76126c4565b5b600086013567ffffffffffffffff811115612ad657612ad56126c9565b5b612ae2888289016127e6565b955050602086013567ffffffffffffffff811115612b0357612b026126c9565b5b612b0f888289016127e6565b9450506040612b2088828901612835565b935050606086013567ffffffffffffffff811115612b4157612b406126c9565b5b612b4d888289016127e6565b925050608086013567ffffffffffffffff811115612b6e57612b6d6126c9565b5b612b7a888289016127e6565b9150509295509295909350565b612b9081612955565b82525050565b60006080820190508181036000830152612bb08187612a0f565b90508181036020830152612bc48186612a0f565b9050612bd36040830185612a48565b612be06060830184612b87565b95945050505050565b600080600060608486031215612c0257612c016126c4565b5b600084013567ffffffffffffffff811115612c2057612c1f6126c9565b5b612c2c868287016127e6565b9350506020612c3d86828701612835565b925050604084013567ffffffffffffffff811115612c5e57612c5d6126c9565b5b612c6a868287016127e6565b9150509250925092565b6000606082019050612c896000830186612b87565b8181036020830152612c9b8185612a0f565b90508181036040830152612caf8184612a0f565b9050949350505050565b7f4e487b7100000000000000000000000000000000000000000000000000000000600052602260045260246000fd5b60006002820490506001821680612d0057607f821691505b602082108103612d1357612d12612cb9565b5b50919050565b600081905092915050565b6000612d2f826129c0565b612d398185612d19565b9350612d498185602086016129dc565b80840191505092915050565b6000612d618284612d24565b915081905092915050565b50565b6000612d7c6000836129cb565b9150612d8782612d6c565b600082019050919050565b60006020820190508181036000830152612dab81612d6f565b9050919050565b7f4163636f756e7420616c72656164792070726573656e74000000000000000000600082015250565b6000612de86017836129cb565b9150612df382612db2565b602082019050919050565b60006020820190508181036000830152612e1781612ddb565b9050919050565b7f486f73706974616c000000000000000000000000000000000000000000000000600082015250565b6000612e546008836129cb565b9150612e5f82612e1e565b602082019050919050565b6000606082019050612e7f6000830185612b87565b8181036020830152612e918184612a0f565b90508181036040830152612ea481612e47565b90509392505050565b7f4163636573732044656e69656400000000000000000000000000000000000000600082015250565b6000612ee3600d836129cb565b9150612eee82612ead565b602082019050919050565b60006020820190508181036000830152612f1281612ed6565b9050919050565b7f50617469656e74204e6f7420466f756e64000000000000000000000000000000600082015250565b6000612f4f6011836129cb565b9150612f5a82612f19565b602082019050919050565b60006020820190508181036000830152612f7e81612f42565b9050919050565b7f446f63746f720000000000000000000000000000000000000000000000000000600082015250565b6000612fbb6006836129cb565b9150612fc682612f85565b602082019050919050565b6000606082019050612fe66000830185612b87565b8181036020830152612ff88184612a0f565b9050818103604083015261300b81612fae565b90509392505050565b7f446f63746f72204e6f7420466f756e6400000000000000000000000000000000600082015250565b600061304a6010836129cb565b915061305582613014565b602082019050919050565b600060208201905081810360008301526130798161303d565b9050919050565b7f50617469656e7400000000000000000000000000000000000000000000000000600082015250565b60006130b66007836129cb565b91506130c182613080565b602082019050919050565b60006060820190506130e16000830185612b87565b81810360208301526130f38184612a0f565b90508181036040830152613106816130a9565b9050939250505056fea2646970667358221220a2846a630a7e4264c66139c2f2d7c7ff41b3b204c3801dcec2a2c89a70bf4e9f64736f6c634300080d0033",
  "immutableReferences": {},
  "source": "// SPDX-License-Identifier: MIT\npragma solidity >=0.4.25 <0.9.0;\n\ncontract HealthCare {\n    address private owner;\n\n    // enum Level {\n    //     High,\n    //     Healthy,\n    //     Low\n    // }\n\n    // enum Role {\n    //     Owner,\n    //     Admin,\n    //     Doctor,\n    //     Patient\n    // }\n\n    struct Hospital {\n        address id;\n        string name;\n        string email;\n        uint phone;\n        string description;\n        string location;\n    }\n\n    struct Doctor {\n        address id;\n        string name;\n        string email;\n        uint phone;\n        string type_name;\n        string location;\n        address hospital;\n    }\n\n    struct Patient {\n        address id;\n        string name;\n        uint phone;\n        string email;\n        // uint score;\n        // Analysis[] history;\n    }\n\n    struct Analysis {\n        uint256 ID;\n        string testName;\n        address hospital;\n        address doctor;\n        uint256 price;\n        string date;\n        uint256 value;\n        uint256 min;\n        uint256 max;\n        uint256 weight;\n        uint256 signatureCount;\n        mapping(address => uint256) signatures;\n    }\n\n    mapping(address => Hospital) private hospitals;\n    mapping(address => Doctor) private doctors;\n    mapping(address => Patient) private patients;\n    mapping(address => Analysis[]) reports;\n\n    constructor() {\n        owner = msg.sender;\n    }\n\n    modifier checkDoctor() {\n        Doctor memory d = doctors[msg.sender];\n        require(d.id > address(0x0), \"Access Denied\");\n        _;\n    }\n\n    modifier checkPatient() {\n        Patient storage p = patients[msg.sender];\n        require(p.id > address(0x0), \"Access Denied\");\n        _;\n    }\n\n    modifier checkAdmin() {\n        Hospital storage h = hospitals[msg.sender];\n        require(h.id > address(0x0), \"Access Denied\");\n        _;\n    }\n\n    modifier checkDoctorOrHospital() {\n        Hospital memory h = hospitals[msg.sender];\n        Doctor memory d = doctors[msg.sender];\n        require(h.id > address(0x0) || d.id > address(0x0), \"Access Denied\");\n        _;\n    }\n\n    event Signup(address add, string name, string role);\n\n    function addDoctor(\n        string memory _name,\n        string memory email,\n        uint phone,\n        string memory _type_name,\n        string memory _location\n    ) public {\n        Doctor memory d = doctors[msg.sender];\n        require(keccak256(abi.encodePacked(_name)) != keccak256(\"\"), \"\");\n        require(!(d.id > address(0x0)), \"Account already present\");\n        doctors[msg.sender] = Doctor({\n            id: msg.sender,\n            name: _name,\n            email: email,\n            phone: phone,\n            type_name: _type_name,\n            location: _location,\n            hospital: address(0x0)\n        });\n        emit Signup(msg.sender, _name, \"Doctor\");\n    }\n\n    function addPatient(\n        string memory _name,\n        uint _phone,\n        string memory _email\n    ) public {\n        Patient storage p = patients[msg.sender];\n        require(keccak256(abi.encodePacked(_name)) != keccak256(\"\"), \"\");\n        require(!(p.id > address(0x0)), \"Account already present\");\n        patients[msg.sender] = Patient(msg.sender, _name, _phone, _email);\n        emit Signup(msg.sender, _name, \"Patient\");\n    }\n\n    function addHospital(\n        string memory name,\n        string memory descr,\n        string memory location,\n        uint _phone,\n        string memory _email\n    ) public {\n        Hospital memory h = hospitals[msg.sender];\n        require(keccak256(abi.encodePacked(name)) != keccak256(\"\"), \"\");\n        require(!(h.id > address(0x0)), \"Account already present\");\n        hospitals[msg.sender] = Hospital(\n            msg.sender,\n            name,\n            _email,\n            _phone,\n            descr,\n            location\n        );\n        emit Signup(msg.sender, name, \"Hospital\");\n    }\n\n    function Login()\n        public\n        view\n        returns (address id, string memory name, string memory email)\n    {\n        Patient memory p = patients[msg.sender];\n        Hospital memory h = hospitals[msg.sender];\n        Doctor memory d = doctors[msg.sender];\n        if (p.id > address(0x0)) {\n            return (msg.sender, p.name, p.email);\n        } else if (h.id > address(0x0)) {\n            return (msg.sender, h.name, h.email);\n        } else if (d.id > (address(0x0))) {\n            return (msg.sender, d.name, d.email);\n        }\n        return (address(0x0), \"\", \"\");\n    }\n\n    function getPatientInfo(\n        address pAddress\n    )\n        public\n        view\n        checkDoctorOrHospital\n        returns (string memory name, string memory email, uint phone)\n    {\n        Patient memory p = patients[pAddress];\n        require((p.id > address(0x0)), \"Patient Not Found\");\n        return (p.name, p.email, p.phone);\n    }\n\n    function getDoctorProfile(\n        address dAddress\n    )\n        public\n        view\n        returns (\n            string memory name,\n            string memory email,\n            uint phone,\n            address hospital\n        )\n    {\n        Doctor memory d = doctors[dAddress];\n        require((d.id > address(0x0)), \"Doctor Not Found\");\n        return (d.name, d.email, d.phone, d.hospital);\n    }\n}\n\n// contract HealthCare {\n//     address private owner;\n\n//     struct Patient {\n//         string name;\n//         uint8 age;\n//         address id;\n//         address[] doctor_list;\n//     }\n\n//     struct Doctor {\n//         string name;\n//         address id;\n//         address[] patient_list;\n//     }\n\n//     mapping(address => Doctor) private doctors;\n//     mapping(address => Patient) private patients;\n//     mapping(address => mapping(address => uint256)) private doctorToPatient; // doctors to patient list\n//     mapping(address => mapping(address => uint256)) private patientToDoctor;\n\n//     //   modifier checkFileAccess(string memory role, address id, bytes32 fileHashId, address pat) {\n//     //     uint pos;\n//     //     if(keccak256(abi.encodePacked(role)) == keccak256(\"doctor\")) {\n//     //         require(patientToDoctor[pat][id] > 0);\n//     //         pos = patientToFile[pat][fileHashId];\n//     //         require(pos > 0);\n//     //     }\n//     //     else if(keccak256(abi.encodePacked(role)) == keccak256(\"patient\")) {\n//     //         pos = patientToFile[id][fileHashId];\n//     //         require(pos > 0);\n//     //     }\n//     //     _;\n//     //   }\n\n//     //   modifier checkFile(bytes32 fileHashId) {\n//     //     bytes memory tempString = bytes(hashToFile[fileHashId].file_name);\n//     //     require(tempString.length > 0);//check if file exist\n//     //     _;\n//     //   }\n\n//     function signupPatient(string memory _name, uint8 _age) public {\n//         Patient memory p = patients[msg.sender];\n//         require(keccak256(abi.encodePacked(_name)) != keccak256(\"\"));\n//         require((_age > 0) && (_age < 100));\n//         require(!(p.id > address(0x0)));\n\n//         patients[msg.sender] = Patient({\n//             name: _name,\n//             age: _age,\n//             id: msg.sender,\n//             doctor_list: new address[](0)\n//         });\n//     }\n\n//     function signupDoctor(string memory _name) public {\n//         Doctor memory d = doctors[msg.sender];\n//         require(keccak256(abi.encodePacked(_name)) != keccak256(\"\"));\n//         require(!(d.id > address(0x0)));\n\n//         doctors[msg.sender] = Doctor({\n//             name: _name,\n//             id: msg.sender,\n//             patient_list: new address[](0)\n//         });\n//     }\n\n//     function grantAccessToDoctor(\n//         address doctor_id\n//     ) public checkPatient(msg.sender) checkDoctor(doctor_id) {\n//         Patient storage p = patients[msg.sender];\n//         Doctor storage d = doctors[doctor_id];\n//         require(patientToDoctor[msg.sender][doctor_id] < 1); // this means doctor already been access\n\n//         p.doctor_list.push(doctor_id); // new length of array\n//         // gpos = pos;\n//         uint pos = p.doctor_list.length;\n//         patientToDoctor[msg.sender][doctor_id] = pos;\n//         d.patient_list.push(msg.sender);\n//     }\n\n//     //   function addFile(string memory _file_name, string memory _file_type, bytes32 _fileHash, string memory _file_secret) public checkPatient(msg.sender) {\n//     //       patient storage p = patients[msg.sender];\n\n//     //       require(patientToFile[msg.sender][_fileHash] < 1);\n\n//     //       hashToFile[_fileHash] = filesInfo({file_name:_file_name, file_type:_file_type,file_secret:_file_secret});\n//     //       uint pos = p.files.push(_fileHash);\n//     //       patientToFile[msg.sender][_fileHash] = pos;\n//     //   }\n\n//     function getPatientProfile()\n//         public\n//         view\n//         checkPatient(msg.sender)\n//         returns (string memory, uint8, address[] memory)\n//     {\n//         Patient memory p = patients[msg.sender];\n//         return (p.name, p.age, p.doctor_list);\n//     }\n\n//     function getDoctorProfile()\n//         public\n//         view\n//         checkDoctor(msg.sender)\n//         returns (string memory, address[] memory)\n//     {\n//         Doctor memory d = doctors[msg.sender];\n//         return (d.name, d.patient_list);\n//     }\n\n//     //   function checkProfile(address _user) public view onlyOwner returns(string memory, string memory){\n//     //       patient memory p = patients[_user];\n//     //       doctor memory d = doctors[_user];\n\n//     //       if(p.id > address(0x0))\n//     //           return (p.name, 'patient');\n//     //       else if(d.id > address(0x0))\n//     //           return (d.name, 'doctor');\n//     //       else\n//     //           return ('', '');\n//     //   }\n\n//     function getPatientInfoForDoctor(\n//         address pat\n//     )\n//         public\n//         view\n//         checkPatient(pat)\n//         checkDoctor(msg.sender)\n//         returns (string memory, uint8, address)\n//     {\n//         Patient memory p = patients[pat];\n\n//         require(patientToDoctor[pat][msg.sender] > 0);\n\n//         return (p.name, p.age, p.id);\n//     }\n\n//     //   function getFileInfo(bytes32 fileHashId) private view checkFile(fileHashId) returns(filesInfo memory) {\n//     //       return hashToFile[fileHashId];\n//     //   }\n\n//     //   function getFileSecret(bytes32 fileHashId, string memory role, address id, address pat) public view\n//     //   checkFile(fileHashId) checkFileAccess(role, id, fileHashId, pat)\n//     //   returns(string memory) {\n//     //       filesInfo memory f = getFileInfo(fileHashId);\n//     //       return (f.file_secret);\n//     //   }\n\n//     //   function getFileInfoDoctor(address doc, address pat, bytes32 fileHashId) public view\n//     //   onlyOwner checkPatient(pat) checkDoctor(doc) checkFileAccess(\"doctor\", doc, fileHashId, pat)\n//     //   returns(string memory, string memory) {\n//     //       filesInfo memory f = getFileInfo(fileHashId);\n//     //       return (f.file_name, f.file_type);\n//     //   }\n\n//     //   function getFileInfoPatient(address pat, bytes32 fileHashId) public view\n//     //   onlyOwner checkPatient(pat) checkFileAccess(\"patient\", pat, fileHashId, pat) returns(string memory, string memory) {\n//     //       filesInfo memory f = getFileInfo(fileHashId);\n//     //       return (f.file_name, f.file_type);\n//     //   }\n// }\n",
  "sourcePath": "/home/rahul/Desktop/Programs/Blockchain/ProjectFinal/HealthCare-Project/src/contracts/HealthCare.sol",
  "compiler": {
    "name": "solc",
    "version": "0.8.13+commit.abaa5c0e.Emscripten.clang"
  },
  "schemaVersion": "3.4.10",
  "updatedAt": "2022-12-06T06:51:10.746Z",
  "networkType": "ethereum",
  "devdoc": {
    "kind": "dev",
    "methods": {},
    "version": 1
  },
  "userdoc": {
    "kind": "user",
    "methods": {},
    "version": 1
  }
}