{
  "contractName": "Hospital",
  "abi": [
    {
      "inputs": [
        {
          "internalType": "uint256",
          "name": "",
          "type": "uint256"
        }
      ],
      "name": "doctorList",
      "outputs": [
        {
          "internalType": "address",
          "name": "",
          "type": "address"
        }
      ],
      "stateMutability": "view",
      "type": "function",
      "constant": true
    },
    {
      "inputs": [
        {
          "internalType": "uint256",
          "name": "",
          "type": "uint256"
        }
      ],
      "name": "patientList",
      "outputs": [
        {
          "internalType": "address",
          "name": "",
          "type": "address"
        }
      ],
      "stateMutability": "view",
      "type": "function",
      "constant": true
    },
    {
      "inputs": [
        {
          "internalType": "string",
          "name": "_name",
          "type": "string"
        },
        {
          "internalType": "uint256",
          "name": "_age",
          "type": "uint256"
        },
        {
          "internalType": "uint256",
          "name": "_designation",
          "type": "uint256"
        },
        {
          "internalType": "string",
          "name": "_hash",
          "type": "string"
        }
      ],
      "name": "add_agent",
      "outputs": [
        {
          "internalType": "string",
          "name": "",
          "type": "string"
        }
      ],
      "stateMutability": "nonpayable",
      "type": "function"
    },
    {
      "inputs": [
        {
          "internalType": "address",
          "name": "addr",
          "type": "address"
        }
      ],
      "name": "get_patient",
      "outputs": [
        {
          "internalType": "string",
          "name": "",
          "type": "string"
        },
        {
          "internalType": "uint256",
          "name": "",
          "type": "uint256"
        },
        {
          "internalType": "uint256[]",
          "name": "",
          "type": "uint256[]"
        },
        {
          "internalType": "address",
          "name": "",
          "type": "address"
        },
        {
          "internalType": "string",
          "name": "",
          "type": "string"
        }
      ],
      "stateMutability": "view",
      "type": "function",
      "constant": true
    },
    {
      "inputs": [
        {
          "internalType": "address",
          "name": "addr",
          "type": "address"
        }
      ],
      "name": "get_doctor",
      "outputs": [
        {
          "internalType": "string",
          "name": "",
          "type": "string"
        },
        {
          "internalType": "uint256",
          "name": "",
          "type": "uint256"
        }
      ],
      "stateMutability": "view",
      "type": "function",
      "constant": true
    },
    {
      "inputs": [
        {
          "internalType": "address",
          "name": "paddr",
          "type": "address"
        },
        {
          "internalType": "address",
          "name": "daddr",
          "type": "address"
        }
      ],
      "name": "get_patient_doctor_name",
      "outputs": [
        {
          "internalType": "string",
          "name": "",
          "type": "string"
        },
        {
          "internalType": "string",
          "name": "",
          "type": "string"
        }
      ],
      "stateMutability": "view",
      "type": "function",
      "constant": true
    },
    {
      "inputs": [
        {
          "internalType": "address",
          "name": "addr",
          "type": "address"
        }
      ],
      "name": "permit_access",
      "outputs": [],
      "stateMutability": "payable",
      "type": "function",
      "payable": true
    },
    {
      "inputs": [
        {
          "internalType": "address",
          "name": "paddr",
          "type": "address"
        },
        {
          "internalType": "uint256",
          "name": "_diagnosis",
          "type": "uint256"
        },
        {
          "internalType": "string",
          "name": "_hash",
          "type": "string"
        }
      ],
      "name": "insurance_claim",
      "outputs": [],
      "stateMutability": "payable",
      "type": "function",
      "payable": true
    },
    {
      "inputs": [
        {
          "internalType": "address",
          "name": "paddr",
          "type": "address"
        },
        {
          "internalType": "address",
          "name": "daddr",
          "type": "address"
        }
      ],
      "name": "remove_patient",
      "outputs": [],
      "stateMutability": "nonpayable",
      "type": "function"
    },
    {
      "inputs": [
        {
          "internalType": "address",
          "name": "addr",
          "type": "address"
        }
      ],
      "name": "get_accessed_doctorlist_for_patient",
      "outputs": [
        {
          "internalType": "address[]",
          "name": "",
          "type": "address[]"
        }
      ],
      "stateMutability": "view",
      "type": "function",
      "constant": true
    },
    {
      "inputs": [
        {
          "internalType": "address",
          "name": "addr",
          "type": "address"
        }
      ],
      "name": "get_accessed_patientlist_for_doctor",
      "outputs": [
        {
          "internalType": "address[]",
          "name": "",
          "type": "address[]"
        }
      ],
      "stateMutability": "view",
      "type": "function",
      "constant": true
    },
    {
      "inputs": [
        {
          "internalType": "address",
          "name": "daddr",
          "type": "address"
        }
      ],
      "name": "revoke_access",
      "outputs": [],
      "stateMutability": "payable",
      "type": "function",
      "payable": true
    },
    {
      "inputs": [],
      "name": "get_patient_list",
      "outputs": [
        {
          "internalType": "address[]",
          "name": "",
          "type": "address[]"
        }
      ],
      "stateMutability": "view",
      "type": "function",
      "constant": true
    },
    {
      "inputs": [],
      "name": "get_doctor_list",
      "outputs": [
        {
          "internalType": "address[]",
          "name": "",
          "type": "address[]"
        }
      ],
      "stateMutability": "view",
      "type": "function",
      "constant": true
    },
    {
      "inputs": [
        {
          "internalType": "address",
          "name": "paddr",
          "type": "address"
        }
      ],
      "name": "get_hash",
      "outputs": [
        {
          "internalType": "string",
          "name": "",
          "type": "string"
        }
      ],
      "stateMutability": "view",
      "type": "function",
      "constant": true
    }
  ],
  "bytecode": "0x608060405234801561001057600080fd5b506121e7806100206000396000f3fe6080604052600436106100e75760003560e01c80637e1519ce1161008a578063dd44176b11610059578063dd44176b14610329578063e81ac05414610366578063f02d90a414610391578063f24be9e7146103ce576100e7565b80637e1519ce14610268578063babb1d41146102a5578063bcffb7ca146102e2578063c39e9635146102fe576100e7565b80631e3fc3b8116100c65780631e3fc3b81461018f57806327b1dcee146101cd5780634042d2d4146101e957806356c98c481461022a576100e7565b80627ee3ce146100ec5780630362fe9b14610129578063127ca4b414610152575b600080fd5b3480156100f857600080fd5b50610113600480360381019061010e91906119ad565b6103ea565b6040516101209190611a98565b60405180910390f35b34801561013557600080fd5b50610150600480360381019061014b9190611aba565b6104c0565b005b34801561015e57600080fd5b5061017960048036038101906101749190611b30565b61055a565b6040516101869190611b6c565b60405180910390f35b34801561019b57600080fd5b506101b660048036038101906101b19190611aba565b610599565b6040516101c4929190611c20565b60405180910390f35b6101e760048036038101906101e291906119ad565b610743565b005b3480156101f557600080fd5b50610210600480360381019061020b91906119ad565b6107b8565b604051610221959493929190611d24565b60405180910390f35b34801561023657600080fd5b50610251600480360381019061024c91906119ad565b610aa8565b60405161025f929190611d8c565b60405180910390f35b34801561027457600080fd5b5061028f600480360381019061028a91906119ad565b610bc6565b60405161029c9190611dbc565b60405180910390f35b3480156102b157600080fd5b506102cc60048036038101906102c79190611b30565b610c9a565b6040516102d99190611b6c565b60405180910390f35b6102fc60048036038101906102f791906119ad565b610cd9565b005b34801561030a57600080fd5b50610313610e4f565b6040516103209190611a98565b60405180910390f35b34801561033557600080fd5b50610350600480360381019061034b91906119ad565b610edd565b60405161035d9190611a98565b60405180910390f35b34801561037257600080fd5b5061037b610fad565b6040516103889190611a98565b60405180910390f35b34801561039d57600080fd5b506103b860048036038101906103b39190611f13565b61103b565b6040516103c59190611dbc565b60405180910390f35b6103e860048036038101906103e39190611fb2565b6112bb565b005b60606000600360008473ffffffffffffffffffffffffffffffffffffffff1673ffffffffffffffffffffffffffffffffffffffff1681526020019081526020016000206002019050808054806020026020016040519081016040528092919081815260200182805480156104b357602002820191906000526020600020905b8160009054906101000a900473ffffffffffffffffffffffffffffffffffffffff1673ffffffffffffffffffffffffffffffffffffffff1681526020019060010190808311610469575b5050505050915050919050565b61050b600460008373ffffffffffffffffffffffffffffffffffffffff1673ffffffffffffffffffffffffffffffffffffffff1681526020019081526020016000206002018361153e565b610556600360008473ffffffffffffffffffffffffffffffffffffffff1673ffffffffffffffffffffffffffffffffffffffff1681526020019081526020016000206002018261153e565b5050565b6002818154811061056a57600080fd5b906000526020600020016000915054906101000a900473ffffffffffffffffffffffffffffffffffffffff1681565b606080600360008573ffffffffffffffffffffffffffffffffffffffff1673ffffffffffffffffffffffffffffffffffffffff168152602001908152602001600020600001600460008573ffffffffffffffffffffffffffffffffffffffff1673ffffffffffffffffffffffffffffffffffffffff16815260200190815260200160002060000181805461062c90612050565b80601f016020809104026020016040519081016040528092919081815260200182805461065890612050565b80156106a55780601f1061067a576101008083540402835291602001916106a5565b820191906000526020600020905b81548152906001019060200180831161068857829003601f168201915b505050505091508080546106b890612050565b80601f01602080910402602001604051908101604052809291908181526020018280546106e490612050565b80156107315780601f1061070657610100808354040283529160200191610731565b820191906000526020600020905b81548152906001019060200180831161071457829003601f168201915b50505050509050915091509250929050565b61074d33826104c0565b3373ffffffffffffffffffffffffffffffffffffffff166108fc671bc16d674ec800009081150290604051600060405180830381858888f1935050505015801561079b573d6000803e3d6000fd5b5060026000808282546107ae91906120b0565b9250508190555050565b60606000606060006060600360008773ffffffffffffffffffffffffffffffffffffffff1673ffffffffffffffffffffffffffffffffffffffff168152602001908152602001600020600001600360008873ffffffffffffffffffffffffffffffffffffffff1673ffffffffffffffffffffffffffffffffffffffff16815260200190815260200160002060010154600360008973ffffffffffffffffffffffffffffffffffffffff1673ffffffffffffffffffffffffffffffffffffffff168152602001908152602001600020600301600560008a73ffffffffffffffffffffffffffffffffffffffff1673ffffffffffffffffffffffffffffffffffffffff16815260200190815260200160002060009054906101000a900473ffffffffffffffffffffffffffffffffffffffff16600360008b73ffffffffffffffffffffffffffffffffffffffff1673ffffffffffffffffffffffffffffffffffffffff16815260200190815260200160002060040184805461093790612050565b80601f016020809104026020016040519081016040528092919081815260200182805461096390612050565b80156109b05780601f10610985576101008083540402835291602001916109b0565b820191906000526020600020905b81548152906001019060200180831161099357829003601f168201915b5050505050945082805480602002602001604051908101604052809291908181526020018280548015610a0257602002820191906000526020600020905b8154815260200190600101908083116109ee575b50505050509250808054610a1590612050565b80601f0160208091040260200160405190810160405280929190818152602001828054610a4190612050565b8015610a8e5780601f10610a6357610100808354040283529160200191610a8e565b820191906000526020600020905b815481529060010190602001808311610a7157829003601f168201915b505050505090509450945094509450945091939590929450565b60606000600460008473ffffffffffffffffffffffffffffffffffffffff1673ffffffffffffffffffffffffffffffffffffffff168152602001908152602001600020600001600460008573ffffffffffffffffffffffffffffffffffffffff1673ffffffffffffffffffffffffffffffffffffffff16815260200190815260200160002060010154818054610b3d90612050565b80601f0160208091040260200160405190810160405280929190818152602001828054610b6990612050565b8015610bb65780601f10610b8b57610100808354040283529160200191610bb6565b820191906000526020600020905b815481529060010190602001808311610b9957829003601f168201915b5050505050915091509150915091565b6060600360008373ffffffffffffffffffffffffffffffffffffffff1673ffffffffffffffffffffffffffffffffffffffff1681526020019081526020016000206004018054610c1590612050565b80601f0160208091040260200160405190810160405280929190818152602001828054610c4190612050565b8015610c8e5780601f10610c6357610100808354040283529160200191610c8e565b820191906000526020600020905b815481529060010190602001808311610c7157829003601f168201915b50505050509050919050565b60018181548110610caa57600080fd5b906000526020600020016000915054906101000a900473ffffffffffffffffffffffffffffffffffffffff1681565b671bc16d674ec800003414610ced57600080fd5b6002600080828254610cff91906120e4565b92505081905550600460008273ffffffffffffffffffffffffffffffffffffffff1673ffffffffffffffffffffffffffffffffffffffff168152602001908152602001600020600201339080600181540180825580915050600190039060005260206000200160009091909190916101000a81548173ffffffffffffffffffffffffffffffffffffffff021916908373ffffffffffffffffffffffffffffffffffffffff160217905550600360003373ffffffffffffffffffffffffffffffffffffffff1673ffffffffffffffffffffffffffffffffffffffff168152602001908152602001600020600201819080600181540180825580915050600190039060005260206000200160009091909190916101000a81548173ffffffffffffffffffffffffffffffffffffffff021916908373ffffffffffffffffffffffffffffffffffffffff16021790555050565b60606002805480602002602001604051908101604052809291908181526020018280548015610ed357602002820191906000526020600020905b8160009054906101000a900473ffffffffffffffffffffffffffffffffffffffff1673ffffffffffffffffffffffffffffffffffffffff1681526020019060010190808311610e89575b5050505050905090565b6060600460008373ffffffffffffffffffffffffffffffffffffffff1673ffffffffffffffffffffffffffffffffffffffff168152602001908152602001600020600201805480602002602001604051908101604052809291908181526020018280548015610fa157602002820191906000526020600020905b8160009054906101000a900473ffffffffffffffffffffffffffffffffffffffff1673ffffffffffffffffffffffffffffffffffffffff1681526020019060010190808311610f57575b50505050509050919050565b6060600180548060200260200160405190810160405280929190818152602001828054801561103157602002820191906000526020600020905b8160009054906101000a900473ffffffffffffffffffffffffffffffffffffffff1673ffffffffffffffffffffffffffffffffffffffff1681526020019060010190808311610fe7575b5050505050905090565b606060003390506000840361119c57611052611792565b8681600001819052508581602001818152505083816080018190525080600360003373ffffffffffffffffffffffffffffffffffffffff1673ffffffffffffffffffffffffffffffffffffffff16815260200190815260200160002060008201518160000190805190602001906110ca9291906117c1565b506020820151816001015560408201518160020190805190602001906110f1929190611847565b50606082015181600301908051906020019061110e9291906118d1565b50608082015181600401908051906020019061112b9291906117c1565b509050506001829080600181540180825580915050600190039060005260206000200160009091909190916101000a81548173ffffffffffffffffffffffffffffffffffffffff021916908373ffffffffffffffffffffffffffffffffffffffff16021790555086925050506112b3565b600184036112ae5785600460008373ffffffffffffffffffffffffffffffffffffffff1673ffffffffffffffffffffffffffffffffffffffff16815260200190815260200160002060000190805190602001906111fa9291906117c1565b5084600460008373ffffffffffffffffffffffffffffffffffffffff1673ffffffffffffffffffffffffffffffffffffffff168152602001908152602001600020600101819055506002819080600181540180825580915050600190039060005260206000200160009091909190916101000a81548173ffffffffffffffffffffffffffffffffffffffff021916908373ffffffffffffffffffffffffffffffffffffffff160217905550859150506112b3565b600080fd5b949350505050565b6000805b600460003373ffffffffffffffffffffffffffffffffffffffff1673ffffffffffffffffffffffffffffffffffffffff1681526020019081526020016000206002018054905081101561143d578473ffffffffffffffffffffffffffffffffffffffff16600460003373ffffffffffffffffffffffffffffffffffffffff1673ffffffffffffffffffffffffffffffffffffffff16815260200190815260200160002060020182815481106113775761137661213a565b5b9060005260206000200160009054906101000a900473ffffffffffffffffffffffffffffffffffffffff1673ffffffffffffffffffffffffffffffffffffffff160361142a573373ffffffffffffffffffffffffffffffffffffffff166108fc671bc16d674ec800009081150290604051600060405180830381858888f1935050505015801561140b573d6000803e3d6000fd5b50600260008082825461141e91906120b0565b92505081905550600191505b808061143590612169565b9150506112bf565b506001151581151503611463576114548483611737565b61145e84336104c0565b611468565b600080fd5b6000805b600360008773ffffffffffffffffffffffffffffffffffffffff1673ffffffffffffffffffffffffffffffffffffffff168152602001908152602001600020600301805490508110156115365784600360008873ffffffffffffffffffffffffffffffffffffffff1673ffffffffffffffffffffffffffffffffffffffff168152602001908152602001600020600301828154811061150e5761150d61213a565b5b90600052602060002001540361152357600191505b808061152e90612169565b91505061146c565b505050505050565b60008060005b84805490508110156115db578373ffffffffffffffffffffffffffffffffffffffff1685828154811061157a5761157961213a565b5b9060005260206000200160009054906101000a900473ffffffffffffffffffffffffffffffffffffffff1673ffffffffffffffffffffffffffffffffffffffff16036115c857600192508091505b80806115d390612169565b915050611544565b50816115e657600080fd5b6001848054905003611637578381815481106116055761160461213a565b5b9060005260206000200160006101000a81549073ffffffffffffffffffffffffffffffffffffffff0219169055611731565b836001858054905061164991906120b0565b8154811061165a5761165961213a565b5b9060005260206000200160009054906101000a900473ffffffffffffffffffffffffffffffffffffffff168482815481106116985761169761213a565b5b9060005260206000200160006101000a81548173ffffffffffffffffffffffffffffffffffffffff021916908373ffffffffffffffffffffffffffffffffffffffff16021790555083600185805490506116f291906120b0565b815481106117035761170261213a565b5b9060005260206000200160006101000a81549073ffffffffffffffffffffffffffffffffffffffff02191690555b50505050565b80600360008473ffffffffffffffffffffffffffffffffffffffff1673ffffffffffffffffffffffffffffffffffffffff168152602001908152602001600020600401908051906020019061178d9291906117c1565b505050565b6040518060a0016040528060608152602001600081526020016060815260200160608152602001606081525090565b8280546117cd90612050565b90600052602060002090601f0160209004810192826117ef5760008555611836565b82601f1061180857805160ff1916838001178555611836565b82800160010185558215611836579182015b8281111561183557825182559160200191906001019061181a565b5b509050611843919061191e565b5090565b8280548282559060005260206000209081019282156118c0579160200282015b828111156118bf5782518260006101000a81548173ffffffffffffffffffffffffffffffffffffffff021916908373ffffffffffffffffffffffffffffffffffffffff16021790555091602001919060010190611867565b5b5090506118cd919061191e565b5090565b82805482825590600052602060002090810192821561190d579160200282015b8281111561190c5782518255916020019190600101906118f1565b5b50905061191a919061191e565b5090565b5b8082111561193757600081600090555060010161191f565b5090565b6000604051905090565b600080fd5b600080fd5b600073ffffffffffffffffffffffffffffffffffffffff82169050919050565b600061197a8261194f565b9050919050565b61198a8161196f565b811461199557600080fd5b50565b6000813590506119a781611981565b92915050565b6000602082840312156119c3576119c2611945565b5b60006119d184828501611998565b91505092915050565b600081519050919050565b600082825260208201905092915050565b6000819050602082019050919050565b611a0f8161196f565b82525050565b6000611a218383611a06565b60208301905092915050565b6000602082019050919050565b6000611a45826119da565b611a4f81856119e5565b9350611a5a836119f6565b8060005b83811015611a8b578151611a728882611a15565b9750611a7d83611a2d565b925050600181019050611a5e565b5085935050505092915050565b60006020820190508181036000830152611ab28184611a3a565b905092915050565b60008060408385031215611ad157611ad0611945565b5b6000611adf85828601611998565b9250506020611af085828601611998565b9150509250929050565b6000819050919050565b611b0d81611afa565b8114611b1857600080fd5b50565b600081359050611b2a81611b04565b92915050565b600060208284031215611b4657611b45611945565b5b6000611b5484828501611b1b565b91505092915050565b611b668161196f565b82525050565b6000602082019050611b816000830184611b5d565b92915050565b600081519050919050565b600082825260208201905092915050565b60005b83811015611bc1578082015181840152602081019050611ba6565b83811115611bd0576000848401525b50505050565b6000601f19601f8301169050919050565b6000611bf282611b87565b611bfc8185611b92565b9350611c0c818560208601611ba3565b611c1581611bd6565b840191505092915050565b60006040820190508181036000830152611c3a8185611be7565b90508181036020830152611c4e8184611be7565b90509392505050565b611c6081611afa565b82525050565b600081519050919050565b600082825260208201905092915050565b6000819050602082019050919050565b611c9b81611afa565b82525050565b6000611cad8383611c92565b60208301905092915050565b6000602082019050919050565b6000611cd182611c66565b611cdb8185611c71565b9350611ce683611c82565b8060005b83811015611d17578151611cfe8882611ca1565b9750611d0983611cb9565b925050600181019050611cea565b5085935050505092915050565b600060a0820190508181036000830152611d3e8188611be7565b9050611d4d6020830187611c57565b8181036040830152611d5f8186611cc6565b9050611d6e6060830185611b5d565b8181036080830152611d808184611be7565b90509695505050505050565b60006040820190508181036000830152611da68185611be7565b9050611db56020830184611c57565b9392505050565b60006020820190508181036000830152611dd68184611be7565b905092915050565b600080fd5b600080fd5b7f4e487b7100000000000000000000000000000000000000000000000000000000600052604160045260246000fd5b611e2082611bd6565b810181811067ffffffffffffffff82111715611e3f57611e3e611de8565b5b80604052505050565b6000611e5261193b565b9050611e5e8282611e17565b919050565b600067ffffffffffffffff821115611e7e57611e7d611de8565b5b611e8782611bd6565b9050602081019050919050565b82818337600083830152505050565b6000611eb6611eb184611e63565b611e48565b905082815260208101848484011115611ed257611ed1611de3565b5b611edd848285611e94565b509392505050565b600082601f830112611efa57611ef9611dde565b5b8135611f0a848260208601611ea3565b91505092915050565b60008060008060808587031215611f2d57611f2c611945565b5b600085013567ffffffffffffffff811115611f4b57611f4a61194a565b5b611f5787828801611ee5565b9450506020611f6887828801611b1b565b9350506040611f7987828801611b1b565b925050606085013567ffffffffffffffff811115611f9a57611f9961194a565b5b611fa687828801611ee5565b91505092959194509250565b600080600060608486031215611fcb57611fca611945565b5b6000611fd986828701611998565b9350506020611fea86828701611b1b565b925050604084013567ffffffffffffffff81111561200b5761200a61194a565b5b61201786828701611ee5565b9150509250925092565b7f4e487b7100000000000000000000000000000000000000000000000000000000600052602260045260246000fd5b6000600282049050600182168061206857607f821691505b60208210810361207b5761207a612021565b5b50919050565b7f4e487b7100000000000000000000000000000000000000000000000000000000600052601160045260246000fd5b60006120bb82611afa565b91506120c683611afa565b9250828210156120d9576120d8612081565b5b828203905092915050565b60006120ef82611afa565b91506120fa83611afa565b9250827fffffffffffffffffffffffffffffffffffffffffffffffffffffffffffffffff0382111561212f5761212e612081565b5b828201905092915050565b7f4e487b7100000000000000000000000000000000000000000000000000000000600052603260045260246000fd5b600061217482611afa565b91507fffffffffffffffffffffffffffffffffffffffffffffffffffffffffffffffff82036121a6576121a5612081565b5b60018201905091905056fea2646970667358221220950afb1466308054f452e45bf239a03455b5c251e986bb29c7b5bd0aed15388464736f6c634300080d0033",
  "immutableReferences": {},
  "source": "// SPDX-License-Identifier: MIT\npragma solidity >=0.4.25 <0.9.0;\ncontract Hospital {\n    \n    struct patient {\n        string name;\n        uint age;\n        address[] doctorAccessList;\n        uint[] diagnosis;\n        string record;\n    }\n    \n    struct doctor {\n        string name;\n        uint age;\n        address[] patientAccessList;\n    }\n\n    uint creditPool;\n\n    address[] public patientList;\n    address[] public doctorList;\n\n    mapping (address => patient) patientInfo;\n    mapping (address => doctor) doctorInfo;\n    mapping (address => address) Empty;\n    // might not be necessary\n    mapping (address => string) patientRecords;\n    \n\n\n    function add_agent(string memory _name, uint _age, uint _designation, string memory _hash) public returns(string memory){\n        address addr = msg.sender;\n        \n        if(_designation == 0){\n            patient memory p;\n            p.name = _name;\n            p.age = _age;\n            p.record = _hash;\n            patientInfo[msg.sender] = p;\n            patientList.push(addr);\n            return _name;\n        }\n       else if (_designation == 1){\n            doctorInfo[addr].name = _name;\n            doctorInfo[addr].age = _age;\n            doctorList.push(addr);\n            return _name;\n       }\n       else{\n           revert();\n       }\n    }\n\n\n    function get_patient(address addr) view public returns (string memory , uint, uint[] memory , address, string memory ){\n        // if(keccak256(patientInfo[addr].name) == keccak256(\"\"))revert();\n        return (patientInfo[addr].name, patientInfo[addr].age, patientInfo[addr].diagnosis, Empty[addr], patientInfo[addr].record);\n    }\n\n    function get_doctor(address addr) view public returns (string memory , uint){\n        // if(keccak256(doctorInfo[addr].name)==keccak256(\"\"))revert();\n        return (doctorInfo[addr].name, doctorInfo[addr].age);\n    }\n    function get_patient_doctor_name(address paddr, address daddr) view public returns (string memory , string memory ){\n        return (patientInfo[paddr].name,doctorInfo[daddr].name);\n    }\n\n    function permit_access(address addr) payable public {\n        require(msg.value == 2 ether);\n\n        creditPool += 2;\n        \n        doctorInfo[addr].patientAccessList.push(msg.sender);\n        patientInfo[msg.sender].doctorAccessList.push(addr);\n        \n    }\n\n\n    //must be called by doctor\n    function insurance_claim(address paddr, uint _diagnosis, string memory  _hash) payable public  {\n        bool patientFound = false;\n        for(uint i = 0;i<doctorInfo[msg.sender].patientAccessList.length;i++){\n            if(doctorInfo[msg.sender].patientAccessList[i]==paddr){\n                payable(msg.sender).transfer(2 ether);\n                creditPool -= 2;\n                patientFound = true;\n                \n            }\n            \n        }\n        if(patientFound==true){\n            set_hash(paddr, _hash);\n            remove_patient(paddr, msg.sender);\n        }else {\n            revert();\n        }\n\n        bool DiagnosisFound = false;\n        for(uint j = 0; j < patientInfo[paddr].diagnosis.length;j++){\n            if(patientInfo[paddr].diagnosis[j] == _diagnosis)DiagnosisFound = true;\n        }\n    }\n\n    function remove_element_in_array(address[] storage Array, address addr) internal\n    {\n        bool check = false;\n        uint del_index = 0;\n        for(uint i = 0; i<Array.length; i++){\n            if(Array[i] == addr){\n                check = true;\n                del_index = i;\n            }\n        }\n        if(!check) revert();\n        else{\n            if(Array.length == 1){\n                delete Array[del_index];\n            }\n            else {\n                Array[del_index] = Array[Array.length - 1];\n                delete Array[Array.length - 1];\n\n            }\n        }\n    }\n\n    function remove_patient(address paddr, address daddr) public {\n        remove_element_in_array(doctorInfo[daddr].patientAccessList, paddr);\n        remove_element_in_array(patientInfo[paddr].doctorAccessList, daddr);\n    }\n    \n    function get_accessed_doctorlist_for_patient(address addr) public view returns (address[] memory )\n    { \n        address[] storage doctoraddr = patientInfo[addr].doctorAccessList;\n        return doctoraddr;\n    }\n    function get_accessed_patientlist_for_doctor(address addr) public view returns (address[] memory )\n    {\n        return doctorInfo[addr].patientAccessList;\n    }\n\n    \n    function revoke_access(address daddr) public payable{\n        remove_patient(msg.sender,daddr);\n        payable(msg.sender).transfer(2 ether);\n        creditPool -= 2;\n    }\n\n    function get_patient_list() public view returns(address[] memory ){\n        return patientList;\n    }\n\n    function get_doctor_list() public view returns(address[] memory ){\n        return doctorList;\n    }\n\n    function get_hash(address paddr) public view returns(string memory ){\n        return patientInfo[paddr].record;\n    }\n\n    function set_hash(address paddr, string memory _hash) internal {\n        patientInfo[paddr].record = _hash;\n    }\n\n}\n",
  "sourcePath": "/Volumes/Heart/CodeQuotient/BlockChain/HealthCare/HealthCare-Project/contracts/hospital.sol",
  "compiler": {
    "name": "solc",
    "version": "0.8.13+commit.abaa5c0e.Emscripten.clang"
  },
  "schemaVersion": "3.4.11",
  "updatedAt": "2022-12-04T07:01:41.588Z",
  "networkType": "ethereum",
  "devdoc": {
    "kind": "dev",
    "methods": {},
    "version": 1
  },
  "userdoc": {
    "kind": "user",
    "methods": {},
    "version": 1
  }
}